{"abi":[{"type":"constructor","inputs":[{"name":"admin","type":"address","internalType":"address"},{"name":"heartbeat_","type":"uint256","internalType":"uint256"}],"stateMutability":"nonpayable"},{"type":"function","name":"DEFAULT_ADMIN_ROLE","inputs":[],"outputs":[{"name":"","type":"bytes32","internalType":"bytes32"}],"stateMutability":"view"},{"type":"function","name":"ORACLE_ROLE","inputs":[],"outputs":[{"name":"","type":"bytes32","internalType":"bytes32"}],"stateMutability":"view"},{"type":"function","name":"getLatestPrice","inputs":[{"name":"assetId","type":"uint256","internalType":"uint256"}],"outputs":[{"name":"priceData","type":"tuple","internalType":"struct AssetOracle.PriceData","components":[{"name":"price","type":"int256","internalType":"int256"},{"name":"timestamp","type":"uint256","internalType":"uint256"},{"name":"decimals","type":"uint8","internalType":"uint8"},{"name":"isManualOverride","type":"bool","internalType":"bool"}]}],"stateMutability":"view"},{"type":"function","name":"getRoleAdmin","inputs":[{"name":"role","type":"bytes32","internalType":"bytes32"}],"outputs":[{"name":"","type":"bytes32","internalType":"bytes32"}],"stateMutability":"view"},{"type":"function","name":"grantRole","inputs":[{"name":"role","type":"bytes32","internalType":"bytes32"},{"name":"account","type":"address","internalType":"address"}],"outputs":[],"stateMutability":"nonpayable"},{"type":"function","name":"hasPriceFeed","inputs":[{"name":"assetId","type":"uint256","internalType":"uint256"}],"outputs":[{"name":"","type":"bool","internalType":"bool"}],"stateMutability":"view"},{"type":"function","name":"hasRole","inputs":[{"name":"role","type":"bytes32","internalType":"bytes32"},{"name":"account","type":"address","internalType":"address"}],"outputs":[{"name":"","type":"bool","internalType":"bool"}],"stateMutability":"view"},{"type":"function","name":"heartbeat","inputs":[],"outputs":[{"name":"","type":"uint256","internalType":"uint256"}],"stateMutability":"view"},{"type":"function","name":"manualPrices","inputs":[{"name":"","type":"uint256","internalType":"uint256"}],"outputs":[{"name":"price","type":"int256","internalType":"int256"},{"name":"timestamp","type":"uint256","internalType":"uint256"},{"name":"decimals","type":"uint8","internalType":"uint8"},{"name":"isManualOverride","type":"bool","internalType":"bool"}],"stateMutability":"view"},{"type":"function","name":"priceFeeds","inputs":[{"name":"","type":"uint256","internalType":"uint256"}],"outputs":[{"name":"","type":"address","internalType":"address"}],"stateMutability":"view"},{"type":"function","name":"removePriceFeed","inputs":[{"name":"assetId","type":"uint256","internalType":"uint256"}],"outputs":[],"stateMutability":"nonpayable"},{"type":"function","name":"renounceRole","inputs":[{"name":"role","type":"bytes32","internalType":"bytes32"},{"name":"callerConfirmation","type":"address","internalType":"address"}],"outputs":[],"stateMutability":"nonpayable"},{"type":"function","name":"revokeRole","inputs":[{"name":"role","type":"bytes32","internalType":"bytes32"},{"name":"account","type":"address","internalType":"address"}],"outputs":[],"stateMutability":"nonpayable"},{"type":"function","name":"setHeartbeat","inputs":[{"name":"newHeartbeat","type":"uint256","internalType":"uint256"}],"outputs":[],"stateMutability":"nonpayable"},{"type":"function","name":"setManualPrice","inputs":[{"name":"assetId","type":"uint256","internalType":"uint256"},{"name":"price","type":"int256","internalType":"int256"},{"name":"decimals_","type":"uint8","internalType":"uint8"}],"outputs":[],"stateMutability":"nonpayable"},{"type":"function","name":"setPriceFeed","inputs":[{"name":"assetId","type":"uint256","internalType":"uint256"},{"name":"feedAddress","type":"address","internalType":"address"}],"outputs":[],"stateMutability":"nonpayable"},{"type":"function","name":"supportsInterface","inputs":[{"name":"interfaceId","type":"bytes4","internalType":"bytes4"}],"outputs":[{"name":"","type":"bool","internalType":"bool"}],"stateMutability":"view"},{"type":"event","name":"HeartbeatUpdated","inputs":[{"name":"oldHeartbeat","type":"uint256","indexed":false,"internalType":"uint256"},{"name":"newHeartbeat","type":"uint256","indexed":false,"internalType":"uint256"}],"anonymous":false},{"type":"event","name":"ManualPriceSet","inputs":[{"name":"assetId","type":"uint256","indexed":true,"internalType":"uint256"},{"name":"price","type":"int256","indexed":false,"internalType":"int256"},{"name":"by","type":"address","indexed":true,"internalType":"address"}],"anonymous":false},{"type":"event","name":"PriceFeedRemoved","inputs":[{"name":"assetId","type":"uint256","indexed":true,"internalType":"uint256"}],"anonymous":false},{"type":"event","name":"PriceFeedSet","inputs":[{"name":"assetId","type":"uint256","indexed":true,"internalType":"uint256"},{"name":"feedAddress","type":"address","indexed":true,"internalType":"address"}],"anonymous":false},{"type":"event","name":"RoleAdminChanged","inputs":[{"name":"role","type":"bytes32","indexed":true,"internalType":"bytes32"},{"name":"previousAdminRole","type":"bytes32","indexed":true,"internalType":"bytes32"},{"name":"newAdminRole","type":"bytes32","indexed":true,"internalType":"bytes32"}],"anonymous":false},{"type":"event","name":"RoleGranted","inputs":[{"name":"role","type":"bytes32","indexed":true,"internalType":"bytes32"},{"name":"account","type":"address","indexed":true,"internalType":"address"},{"name":"sender","type":"address","indexed":true,"internalType":"address"}],"anonymous":false},{"type":"event","name":"RoleRevoked","inputs":[{"name":"role","type":"bytes32","indexed":true,"internalType":"bytes32"},{"name":"account","type":"address","indexed":true,"internalType":"address"},{"name":"sender","type":"address","indexed":true,"internalType":"address"}],"anonymous":false},{"type":"error","name":"AccessControlBadConfirmation","inputs":[]},{"type":"error","name":"AccessControlUnauthorizedAccount","inputs":[{"name":"account","type":"address","internalType":"address"},{"name":"neededRole","type":"bytes32","internalType":"bytes32"}]},{"type":"error","name":"InvalidHeartbeat","inputs":[]},{"type":"error","name":"InvalidPrice","inputs":[{"name":"assetId","type":"uint256","internalType":"uint256"},{"name":"price","type":"int256","internalType":"int256"}]},{"type":"error","name":"PriceFeedNotSet","inputs":[{"name":"assetId","type":"uint256","internalType":"uint256"}]},{"type":"error","name":"StalePrice","inputs":[{"name":"assetId","type":"uint256","internalType":"uint256"},{"name":"updatedAt","type":"uint256","internalType":"uint256"},{"name":"heartbeat","type":"uint256","internalType":"uint256"}]},{"type":"error","name":"ZeroAddress","inputs":[]}],"bytecode":{"object":"0x608060405234801561000f575f5ffd5b50604051610ca4380380610ca483398101604081905261002e91610160565b6001600160a01b0382166100555760405163d92e233d60e01b815260040160405180910390fd5b805f0361007557604051638f1825c960e01b815260040160405180910390fd5b60038190556100845f836100b7565b506100af7f68e79a7bf1e0bc45d0a330c573bc367f9cf464fd326078812f301165fbda4ef1836100b7565b505050610197565b5f828152602081815260408083206001600160a01b038516845290915281205460ff16610157575f838152602081815260408083206001600160a01b03861684529091529020805460ff1916600117905561010f3390565b6001600160a01b0316826001600160a01b0316847f2f8788117e7eff1d82e926ec794901d17c78024a50270940304540a733656f0d60405160405180910390a450600161015a565b505f5b92915050565b5f5f60408385031215610171575f5ffd5b82516001600160a01b0381168114610187575f5ffd5b6020939093015192949293505050565b610b00806101a45f395ff3fe608060405234801561000f575f5ffd5b50600436106100d9575f3560e01c806301ffc9a7146100dd57806307e2cea51461010557806310c7f0b914610127578063248a9ca3146101675780632c83889d1461017a5780632f2ff15d1461018f57806336568abe146101a25780633b895c90146101b55780633defb962146101c85780633eaf607f146101d1578063779f80021461023557806391d1485414610248578063a217fddf1461025b578063a829953c14610262578063b94fe91714610275578063d29dba91146102c0578063d547741f146102d3575b5f5ffd5b6100f06100eb36600461093e565b6102e6565b60405190151581526020015b60405180910390f35b6101195f516020610aab5f395f51905f5281565b6040519081526020016100fc565b61014f61013536600461096c565b60016020525f90815260409020546001600160a01b031681565b6040516001600160a01b0390911681526020016100fc565b61011961017536600461096c565b61031c565b61018d61018836600461096c565b610330565b005b61018d61019d36600461099e565b610380565b61018d6101b036600461099e565b6103a2565b61018d6101c336600461099e565b6103da565b61011960035481565b61020a6101df36600461096c565b600260208190525f918252604090912080546001820154919092015460ff8082169161010090041684565b6040516100fc9493929190938452602084019290925260ff1660408301521515606082015260800190565b61018d6102433660046109d6565b610464565b6100f061025636600461099e565b61054e565b6101195f81565b6100f061027036600461096c565b610576565b61028861028336600461096c565b6105ac565b6040516100fc9190815181526020808301519082015260408083015160ff169082015260609182015115159181019190915260800190565b61018d6102ce36600461096c565b610770565b61018d6102e136600461099e565b6107e0565b5f6001600160e01b03198216637965db0b60e01b148061031657506301ffc9a760e01b6001600160e01b03198316145b92915050565b5f9081526020819052604090206001015490565b5f61033a816107fc565b5f8281526001602052604080822080546001600160a01b03191690555183917fcfb0d69262f32266af22a30389f9b1d24366e8d974234583df8984df1b86792891a25050565b6103898261031c565b610392816107fc565b61039c8383610809565b50505050565b6001600160a01b03811633146103cb5760405163334bd91960e11b815260040160405180910390fd5b6103d58282610898565b505050565b5f6103e4816107fc565b6001600160a01b03821661040b5760405163d92e233d60e01b815260040160405180910390fd5b5f8381526001602052604080822080546001600160a01b0319166001600160a01b0386169081179091559051909185917f50d949ea300a19b8c06fcc5aa4e694eb3154cf29d1be18f4d3f85cb273ec71349190a3505050565b5f516020610aab5f395f51905f5261047b816107fc565b5f83136104aa576040516330e7043160e01b815260048101859052602481018490526044015b60405180910390fd5b6040805160808101825284815242602080830191825260ff8087168486019081526001606086018181525f8c81526002958690528890209651875594519086015551939091018054925115156101000261ffff19909316939091169290921717905551339085907ff9dca7147126bd3ba5263a19536ea2c0ba6c15c8804a5b152d2b23a96b3a41c7906105409087815260200190565b60405180910390a350505050565b5f918252602082815260408084206001600160a01b0393909316845291905290205460ff1690565b5f818152600160205260408120546001600160a01b03161515806103165750505f90815260026020526040902060010154151590565b604080516080810182525f8082526020820181905291810182905260608101919091525f828152600160205260409020546001600160a01b0316801561070157806001600160a01b031663feaf968c6040518163ffffffff1660e01b815260040160a060405180830381865afa925050508015610646575060408051601f3d908101601f1916820190925261064391810190610a22565b60015b15610701575f8413801561066557506003546106628342610a70565b11155b156106fb575f866001600160a01b031663313ce5676040518163ffffffff1660e01b8152600401602060405180830381865afa1580156106a7573d5f5f3e3d5ffd5b505050506040513d601f19601f820116820180604052508101906106cb9190610a8f565b60408051608081018252968752602087019490945260ff169285019290925250505f606083015250949350505050565b50505050505b5f83815260026020818152604092839020835160808101855281548152600182015492810183905292015460ff808216948401949094526101009004909216151560608201529015610754579392505050565b60405163581aeacd60e01b8152600481018590526024016104a1565b5f61077a816107fc565b815f0361079a57604051638f1825c960e01b815260040160405180910390fd5b600380549083905560408051828152602081018590527fe452a27d3b098a57cdda646c96c15e5e8e1ba64ee911f09e4af4036611fe6792910160405180910390a1505050565b6107e98261031c565b6107f2816107fc565b61039c8383610898565b6108068133610901565b50565b5f610814838361054e565b610891575f838152602081815260408083206001600160a01b03861684529091529020805460ff191660011790556108493390565b6001600160a01b0316826001600160a01b0316847f2f8788117e7eff1d82e926ec794901d17c78024a50270940304540a733656f0d60405160405180910390a4506001610316565b505f610316565b5f6108a3838361054e565b15610891575f838152602081815260408083206001600160a01b0386168085529252808320805460ff1916905551339286917ff6391f5c32d9c69d2a47ea670b442974b53935d1edc7fd64eb21e047a839171b9190a4506001610316565b61090b828261054e565b61093a5760405163e2517d3f60e01b81526001600160a01b0382166004820152602481018390526044016104a1565b5050565b5f6020828403121561094e575f5ffd5b81356001600160e01b031981168114610965575f5ffd5b9392505050565b5f6020828403121561097c575f5ffd5b5035919050565b80356001600160a01b0381168114610999575f5ffd5b919050565b5f5f604083850312156109af575f5ffd5b823591506109bf60208401610983565b90509250929050565b60ff81168114610806575f5ffd5b5f5f5f606084860312156109e8575f5ffd5b83359250602084013591506040840135610a01816109c8565b809150509250925092565b80516001600160501b0381168114610999575f5ffd5b5f5f5f5f5f60a08688031215610a36575f5ffd5b610a3f86610a0c565b60208701516040880151606089015192975090955093509150610a6460808701610a0c565b90509295509295909350565b8181038181111561031657634e487b7160e01b5f52601160045260245ffd5b5f60208284031215610a9f575f5ffd5b8151610965816109c856fe68e79a7bf1e0bc45d0a330c573bc367f9cf464fd326078812f301165fbda4ef1a2646970667358221220b9ffa0ffc17bea09852be282dadcee7c1390d03881de116992d458e465c2cd3764736f6c634300081c0033","linkReferences":{}},"methodIdentifiers":{"DEFAULT_ADMIN_ROLE()":"a217fddf","ORACLE_ROLE()":"07e2cea5","getLatestPrice(uint256)":"b94fe917","getRoleAdmin(bytes32)":"248a9ca3","grantRole(bytes32,address)":"2f2ff15d","hasPriceFeed(uint256)":"a829953c","hasRole(bytes32,address)":"91d14854","heartbeat()":"3defb962","manualPrices(uint256)":"3eaf607f","priceFeeds(uint256)":"10c7f0b9","removePriceFeed(uint256)":"2c83889d","renounceRole(bytes32,address)":"36568abe","revokeRole(bytes32,address)":"d547741f","setHeartbeat(uint256)":"d29dba91","setManualPrice(uint256,int256,uint8)":"779f8002","setPriceFeed(uint256,address)":"3b895c90","supportsInterface(bytes4)":"01ffc9a7"},"id":73}