{"abi":[{"type":"constructor","inputs":[],"stateMutability":"nonpayable"},{"type":"function","name":"CUSTODIAN_ROLE","inputs":[],"outputs":[{"name":"","type":"bytes32","internalType":"bytes32"}],"stateMutability":"view"},{"type":"function","name":"DEFAULT_ADMIN_ROLE","inputs":[],"outputs":[{"name":"","type":"bytes32","internalType":"bytes32"}],"stateMutability":"view"},{"type":"function","name":"UPGRADE_INTERFACE_VERSION","inputs":[],"outputs":[{"name":"","type":"string","internalType":"string"}],"stateMutability":"view"},{"type":"function","name":"allAssetIds","inputs":[{"name":"","type":"uint256","internalType":"uint256"}],"outputs":[{"name":"","type":"uint256","internalType":"uint256"}],"stateMutability":"view"},{"type":"function","name":"complianceManager","inputs":[],"outputs":[{"name":"","type":"address","internalType":"address"}],"stateMutability":"view"},{"type":"function","name":"deactivateAsset","inputs":[{"name":"assetId_","type":"uint256","internalType":"uint256"}],"outputs":[],"stateMutability":"nonpayable"},{"type":"function","name":"getAllAssetIds","inputs":[],"outputs":[{"name":"","type":"uint256[]","internalType":"uint256[]"}],"stateMutability":"view"},{"type":"function","name":"getAsset","inputs":[{"name":"assetId_","type":"uint256","internalType":"uint256"}],"outputs":[{"name":"","type":"tuple","internalType":"struct IAssetRegistry.Asset","components":[{"name":"assetId","type":"uint256","internalType":"uint256"},{"name":"name","type":"string","internalType":"string"},{"name":"symbol","type":"string","internalType":"string"},{"name":"metadataHash","type":"bytes32","internalType":"bytes32"},{"name":"custodian","type":"address","internalType":"address"},{"name":"tokenContract","type":"address","internalType":"address"},{"name":"totalSupply","type":"uint256","internalType":"uint256"},{"name":"isActive","type":"bool","internalType":"bool"},{"name":"registrationTimestamp","type":"uint256","internalType":"uint256"}]}],"stateMutability":"view"},{"type":"function","name":"getRoleAdmin","inputs":[{"name":"role","type":"bytes32","internalType":"bytes32"}],"outputs":[{"name":"","type":"bytes32","internalType":"bytes32"}],"stateMutability":"view"},{"type":"function","name":"getTokenContract","inputs":[{"name":"assetId_","type":"uint256","internalType":"uint256"}],"outputs":[{"name":"","type":"address","internalType":"address"}],"stateMutability":"view"},{"type":"function","name":"grantRole","inputs":[{"name":"role","type":"bytes32","internalType":"bytes32"},{"name":"account","type":"address","internalType":"address"}],"outputs":[],"stateMutability":"nonpayable"},{"type":"function","name":"hasRole","inputs":[{"name":"role","type":"bytes32","internalType":"bytes32"},{"name":"account","type":"address","internalType":"address"}],"outputs":[{"name":"","type":"bool","internalType":"bool"}],"stateMutability":"view"},{"type":"function","name":"initialize","inputs":[{"name":"admin","type":"address","internalType":"address"},{"name":"complianceManager_","type":"address","internalType":"address"}],"outputs":[],"stateMutability":"nonpayable"},{"type":"function","name":"isAssetActive","inputs":[{"name":"assetId_","type":"uint256","internalType":"uint256"}],"outputs":[{"name":"","type":"bool","internalType":"bool"}],"stateMutability":"view"},{"type":"function","name":"nextAssetId","inputs":[],"outputs":[{"name":"","type":"uint256","internalType":"uint256"}],"stateMutability":"view"},{"type":"function","name":"proxiableUUID","inputs":[],"outputs":[{"name":"","type":"bytes32","internalType":"bytes32"}],"stateMutability":"view"},{"type":"function","name":"reactivateAsset","inputs":[{"name":"assetId_","type":"uint256","internalType":"uint256"}],"outputs":[],"stateMutability":"nonpayable"},{"type":"function","name":"registerAsset","inputs":[{"name":"name_","type":"string","internalType":"string"},{"name":"symbol_","type":"string","internalType":"string"},{"name":"metadataHash","type":"bytes32","internalType":"bytes32"},{"name":"tokenSupply","type":"uint256","internalType":"uint256"}],"outputs":[{"name":"assetId","type":"uint256","internalType":"uint256"}],"stateMutability":"nonpayable"},{"type":"function","name":"renounceRole","inputs":[{"name":"role","type":"bytes32","internalType":"bytes32"},{"name":"callerConfirmation","type":"address","internalType":"address"}],"outputs":[],"stateMutability":"nonpayable"},{"type":"function","name":"revokeRole","inputs":[{"name":"role","type":"bytes32","internalType":"bytes32"},{"name":"account","type":"address","internalType":"address"}],"outputs":[],"stateMutability":"nonpayable"},{"type":"function","name":"setComplianceManager","inputs":[{"name":"newManager","type":"address","internalType":"address"}],"outputs":[],"stateMutability":"nonpayable"},{"type":"function","name":"supportsInterface","inputs":[{"name":"interfaceId","type":"bytes4","internalType":"bytes4"}],"outputs":[{"name":"","type":"bool","internalType":"bool"}],"stateMutability":"view"},{"type":"function","name":"totalAssets","inputs":[],"outputs":[{"name":"","type":"uint256","internalType":"uint256"}],"stateMutability":"view"},{"type":"function","name":"updateCustodian","inputs":[{"name":"assetId_","type":"uint256","internalType":"uint256"},{"name":"newCustodian","type":"address","internalType":"address"}],"outputs":[],"stateMutability":"nonpayable"},{"type":"function","name":"upgradeToAndCall","inputs":[{"name":"newImplementation","type":"address","internalType":"address"},{"name":"data","type":"bytes","internalType":"bytes"}],"outputs":[],"stateMutability":"payable"},{"type":"event","name":"AssetDeactivated","inputs":[{"name":"assetId","type":"uint256","indexed":true,"internalType":"uint256"},{"name":"by","type":"address","indexed":true,"internalType":"address"}],"anonymous":false},{"type":"event","name":"AssetReactivated","inputs":[{"name":"assetId","type":"uint256","indexed":true,"internalType":"uint256"},{"name":"by","type":"address","indexed":true,"internalType":"address"}],"anonymous":false},{"type":"event","name":"AssetRegistered","inputs":[{"name":"assetId","type":"uint256","indexed":true,"internalType":"uint256"},{"name":"name","type":"string","indexed":false,"internalType":"string"},{"name":"symbol","type":"string","indexed":false,"internalType":"string"},{"name":"custodian","type":"address","indexed":true,"internalType":"address"},{"name":"tokenContract","type":"address","indexed":true,"internalType":"address"},{"name":"totalSupply","type":"uint256","indexed":false,"internalType":"uint256"}],"anonymous":false},{"type":"event","name":"ComplianceManagerUpdated","inputs":[{"name":"oldManager","type":"address","indexed":true,"internalType":"address"},{"name":"newManager","type":"address","indexed":true,"internalType":"address"}],"anonymous":false},{"type":"event","name":"CustodianUpdated","inputs":[{"name":"assetId","type":"uint256","indexed":true,"internalType":"uint256"},{"name":"oldCustodian","type":"address","indexed":true,"internalType":"address"},{"name":"newCustodian","type":"address","indexed":true,"internalType":"address"}],"anonymous":false},{"type":"event","name":"Initialized","inputs":[{"name":"version","type":"uint64","indexed":false,"internalType":"uint64"}],"anonymous":false},{"type":"event","name":"RoleAdminChanged","inputs":[{"name":"role","type":"bytes32","indexed":true,"internalType":"bytes32"},{"name":"previousAdminRole","type":"bytes32","indexed":true,"internalType":"bytes32"},{"name":"newAdminRole","type":"bytes32","indexed":true,"internalType":"bytes32"}],"anonymous":false},{"type":"event","name":"RoleGranted","inputs":[{"name":"role","type":"bytes32","indexed":true,"internalType":"bytes32"},{"name":"account","type":"address","indexed":true,"internalType":"address"},{"name":"sender","type":"address","indexed":true,"internalType":"address"}],"anonymous":false},{"type":"event","name":"RoleRevoked","inputs":[{"name":"role","type":"bytes32","indexed":true,"internalType":"bytes32"},{"name":"account","type":"address","indexed":true,"internalType":"address"},{"name":"sender","type":"address","indexed":true,"internalType":"address"}],"anonymous":false},{"type":"event","name":"Upgraded","inputs":[{"name":"implementation","type":"address","indexed":true,"internalType":"address"}],"anonymous":false},{"type":"error","name":"AccessControlBadConfirmation","inputs":[]},{"type":"error","name":"AccessControlUnauthorizedAccount","inputs":[{"name":"account","type":"address","internalType":"address"},{"name":"neededRole","type":"bytes32","internalType":"bytes32"}]},{"type":"error","name":"AddressEmptyCode","inputs":[{"name":"target","type":"address","internalType":"address"}]},{"type":"error","name":"AssetAlreadyActive","inputs":[{"name":"assetId","type":"uint256","internalType":"uint256"}]},{"type":"error","name":"AssetNotActive","inputs":[{"name":"assetId","type":"uint256","internalType":"uint256"}]},{"type":"error","name":"AssetNotFound","inputs":[{"name":"assetId","type":"uint256","internalType":"uint256"}]},{"type":"error","name":"ERC1967InvalidImplementation","inputs":[{"name":"implementation","type":"address","internalType":"address"}]},{"type":"error","name":"ERC1967NonPayable","inputs":[]},{"type":"error","name":"EmptyName","inputs":[]},{"type":"error","name":"EmptySymbol","inputs":[]},{"type":"error","name":"FailedCall","inputs":[]},{"type":"error","name":"InvalidInitialization","inputs":[]},{"type":"error","name":"InvalidSupply","inputs":[]},{"type":"error","name":"NotInitializing","inputs":[]},{"type":"error","name":"ReentrancyGuardReentrantCall","inputs":[]},{"type":"error","name":"UUPSUnauthorizedCallContext","inputs":[]},{"type":"error","name":"UUPSUnsupportedProxiableUUID","inputs":[{"name":"slot","type":"bytes32","internalType":"bytes32"}]},{"type":"error","name":"ZeroAddress","inputs":[]}],"bytecode":{"object":"0x60a060405230608052348015610013575f5ffd5b5060017f9b779b17422d0df92223018b32b4d1fa46e071723d6817e2486d003becc55f0055610040610045565b6100f7565b7ff0c57e16840df040f15088dc2f81fe391c3923bec73e23a9662efc9c229c6a00805468010000000000000000900460ff16156100955760405163f92ee8a960e01b815260040160405180910390fd5b80546001600160401b03908116146100f45780546001600160401b0319166001600160401b0390811782556040519081527fc7f505b2f371ae2175ee4913f4499e1f2633a7b5936321eed1cdaeb6115181d29060200160405180910390a15b50565b60805161465861011d5f395f81816110150152818161103e015261117601526146585ff3fe608060405260043610610125575f3560e01c806301e1d1141461012957806301ffc9a71461014c57806322e900c21461017b578063248a9ca3146101ac5780632f2ff15d146101cb578063319af5e0146101ec57806336568abe1461020b578063485cc9551461022a5780634f1ef2861461024957806352d1902d1461025c5780638ed913181461027057806391d1485414610284578063a07e5199146102a3578063a12c5487146102cf578063a217fddf146102ee578063a576b5da14610301578063a6d2d2eb14610320578063ad3cb1cc1461033f578063b823e2631461037c578063c79445d01461039b578063d547741f146103bb578063e122f907146103da578063e814d66b146103fb578063eac8f5b81461041a578063ff7bce2314610446575b5f5ffd5b348015610134575f5ffd5b506003545b6040519081526020015b60405180910390f35b348015610157575f5ffd5b5061016b610166366004611454565b610465565b6040519015158152602001610143565b348015610186575f5ffd5b5061016b610195366004611482565b5f9081526001602052604090206007015460ff1690565b3480156101b7575f5ffd5b506101396101c6366004611482565b61049b565b3480156101d6575f5ffd5b506101ea6101e53660046114b4565b6104b9565b005b3480156101f7575f5ffd5b506101ea610206366004611482565b6104db565b348015610216575f5ffd5b506101ea6102253660046114b4565b610584565b348015610235575f5ffd5b506101ea6102443660046114de565b6105bc565b6101ea61025736600461151a565b610731565b348015610267575f5ffd5b50610139610750565b34801561027b575f5ffd5b506101395f5481565b34801561028f575f5ffd5b5061016b61029e3660046114b4565b61076b565b3480156102ae575f5ffd5b506102c26102bd366004611482565b61079f565b60405161014391906115e8565b3480156102da575f5ffd5b506101ea6102e93660046114b4565b6107f0565b3480156102f9575f5ffd5b506101395f81565b34801561030c575f5ffd5b506101ea61031b3660046115fc565b6108ae565b34801561032b575f5ffd5b506101ea61033a366004611482565b610931565b34801561034a575f5ffd5b5061036f604051806040016040528060058152602001640352e302e360dc1b81525081565b6040516101439190611643565b348015610387575f5ffd5b50610139610396366004611699565b6109d9565b3480156103a6575f5ffd5b506101395f5160206145e35f395f51905f5281565b3480156103c6575f5ffd5b506101ea6103d53660046114b4565b610bd7565b3480156103e5575f5ffd5b506103ee610bf3565b6040516101439190611714565b348015610406575f5ffd5b50610139610415366004611482565b610c49565b348015610425575f5ffd5b50610439610434366004611482565b610c68565b6040516101439190611756565b348015610451575f5ffd5b506002546102c2906001600160a01b031681565b5f6001600160e01b03198216637965db0b60e01b148061049557506301ffc9a760e01b6001600160e01b03198316145b92915050565b5f5f6104a5610e8c565b5f9384526020525050604090206001015490565b6104c28261049b565b6104cb81610eb0565b6104d58383610ebd565b50505050565b5f6104e581610eb0565b5f828152600160205260408120600881015490910361051f5760405163ad917ae760e01b8152600481018490526024015b60405180910390fd5b600781015460ff16610547576040516321f65f7960e21b815260048101849052602401610516565b60078101805460ff19169055604051339084907f859dd3e79827129b9ab4c4a80bf356e65c5cae291aa20e4dc9e7896cec9ab1cb905f90a3505050565b6001600160a01b03811633146105ad5760405163334bd91960e11b815260040160405180910390fd5b6105b78282610f62565b505050565b5f6105c5610fd8565b805490915060ff600160401b82041615906001600160401b03165f811580156105eb5750825b90505f826001600160401b031660011480156106065750303b155b905081158015610614575080155b156106325760405163f92ee8a960e01b815260040160405180910390fd5b84546001600160401b0319166001178555831561065b57845460ff60401b1916600160401b1785555b6001600160a01b038716158061067857506001600160a01b038616155b156106965760405163d92e233d60e01b815260040160405180910390fd5b61069e611000565b600280546001600160a01b0319166001600160a01b03881617905560015f9081556106c99088610ebd565b506106e15f5160206145e35f395f51905f5288610ebd565b50831561072857845460ff60401b19168555604051600181527fc7f505b2f371ae2175ee4913f4499e1f2633a7b5936321eed1cdaeb6115181d29060200160405180910390a15b50505050505050565b61073961100a565b610742826110ae565b61074c82826110b8565b5050565b5f61075961116b565b505f5160206146035f395f51905f5290565b5f5f610775610e8c565b5f948552602090815260408086206001600160a01b03959095168652939052505090205460ff1690565b5f8181526001602052604081206008015481036107d25760405163ad917ae760e01b815260048101839052602401610516565b505f908152600160205260409020600501546001600160a01b031690565b5f6107fa81610eb0565b6001600160a01b0382166108215760405163d92e233d60e01b815260040160405180910390fd5b5f83815260016020526040812060088101549091036108565760405163ad917ae760e01b815260048101859052602401610516565b6004810180546001600160a01b038581166001600160a01b03198316811790935560405191169190829087907f0813e16760800a2a281877d8429a8e87e27b52a876dbafdaba728ca372198b3f905f90a45050505050565b5f6108b881610eb0565b6001600160a01b0382166108df5760405163d92e233d60e01b815260040160405180910390fd5b600280546001600160a01b038481166001600160a01b0319831681179093556040519116919082907f14d841f5311a74e193fb09995a04bffb58b29d4a1b991c52875496ff4313ad49905f90a3505050565b5f61093b81610eb0565b5f82815260016020526040812060088101549091036109705760405163ad917ae760e01b815260048101849052602401610516565b600781015460ff1615610999576040516320c4eb7f60e01b815260048101849052602401610516565b60078101805460ff19166001179055604051339084907f81147d919d7f271ff0703bdc67efc0e5679c770479cbb79505a97e967fc012a0905f90a3505050565b5f5f5160206145e35f395f51905f526109f181610eb0565b6109f96111b4565b5f879003610a1a57604051632ef1310560e01b815260040160405180910390fd5b5f859003610a3b57604051630cc613fb60e11b815260040160405180910390fd5b825f03610a5b576040516315ae672760e01b815260040160405180910390fd5b5f80549080610a6983611802565b9190505591505f88888888873360025f9054906101000a90046001600160a01b031689604051610a9890611447565b610aa998979695949392919061184e565b604051809103905ff080158015610ac2573d5f5f3e3d5ffd5b505f8481526001602081905260409091208581559192508101610ae68a8c83611926565b5060028101610af6888a83611926565b5060038082018790556004820180546001600160a01b0319908116339081179092556005840180546001600160a01b0387169216821790556006840188905560078401805460ff19166001908117909155426008860155835490810184555f939093527fc2575a0e9e593c00f959f8c92f12db2869c3395a3b0502d05e2516446f71f85b90920186905560405186907f8b6b6a43afe44ae822a7bfc574e4e40c8440b7e96ad06445703d1f4c665109ce90610bba908f908f908f908f908e906119df565b60405180910390a45050610bcc6111cf565b509695505050505050565b610be08261049b565b610be981610eb0565b6104d58383610f62565b60606003805480602002602001604051908101604052809291908181526020018280548015610c3f57602002820191905f5260205f20905b815481526020019060010190808311610c2b575b5050505050905090565b60038181548110610c58575f80fd5b5f91825260209091200154905081565b610cc46040518061012001604052805f815260200160608152602001606081526020015f81526020015f6001600160a01b031681526020015f6001600160a01b031681526020015f81526020015f151581526020015f81525090565b5f828152600160205260408120600801549003610cf75760405163ad917ae760e01b815260048101839052602401610516565b5f828152600160208181526040928390208351610120810190945280548452918201805491840191610d28906118a3565b80601f0160208091040260200160405190810160405280929190818152602001828054610d54906118a3565b8015610d9f5780601f10610d7657610100808354040283529160200191610d9f565b820191905f5260205f20905b815481529060010190602001808311610d8257829003601f168201915b50505050508152602001600282018054610db8906118a3565b80601f0160208091040260200160405190810160405280929190818152602001828054610de4906118a3565b8015610e2f5780601f10610e0657610100808354040283529160200191610e2f565b820191905f5260205f20905b815481529060010190602001808311610e1257829003601f168201915b50505091835250506003820154602082015260048201546001600160a01b039081166040830152600583015416606082015260068201546080820152600782015460ff16151560a082015260089091015460c09091015292915050565b7f02dd7bc7dec4dceedda775e58dd541e08a116c6c53815c0bd028192f7b62680090565b610eba81336111dc565b50565b5f5f610ec7610e8c565b9050610ed3848461076b565b610f52575f848152602082815260408083206001600160a01b03871684529091529020805460ff19166001179055610f083390565b6001600160a01b0316836001600160a01b0316857f2f8788117e7eff1d82e926ec794901d17c78024a50270940304540a733656f0d60405160405180910390a46001915050610495565b5f915050610495565b5092915050565b5f5f610f6c610e8c565b9050610f78848461076b565b15610f52575f848152602082815260408083206001600160a01b0387168085529252808320805460ff1916905551339287917ff6391f5c32d9c69d2a47ea670b442974b53935d1edc7fd64eb21e047a839171b9190a46001915050610495565b5f807ff0c57e16840df040f15088dc2f81fe391c3923bec73e23a9662efc9c229c6a00610495565b611008611215565b565b306001600160a01b037f000000000000000000000000000000000000000000000000000000000000000016148061109057507f00000000000000000000000000000000000000000000000000000000000000006001600160a01b03166110845f5160206146035f395f51905f52546001600160a01b031690565b6001600160a01b031614155b156110085760405163703e46dd60e11b815260040160405180910390fd5b5f61074c81610eb0565b816001600160a01b03166352d1902d6040518163ffffffff1660e01b8152600401602060405180830381865afa925050508015611112575060408051601f3d908101601f1916820190925261110f91810190611a18565b60015b6111315781604051634c9c8ce360e01b815260040161051691906115e8565b5f5160206146035f395f51905f52811461116157604051632a87526960e21b815260048101829052602401610516565b6105b7838361123a565b306001600160a01b037f000000000000000000000000000000000000000000000000000000000000000016146110085760405163703e46dd60e11b815260040160405180910390fd5b6111bc61128f565b60026111cc6111c96112b5565b90565b55565b60016111cc6111c96112b5565b6111e6828261076b565b61074c5760405163e2517d3f60e01b81526001600160a01b038216600482015260248101839052604401610516565b61121d6112d9565b61100857604051631afcd79f60e31b815260040160405180910390fd5b611243826112f2565b6040516001600160a01b038316907fbc7cd75a20ee27fd9adebab32041f755214dbc6bffa90cc0225b39da2e5c2d3b905f90a2805115611287576105b7828261134c565b61074c6113dc565b6112976113fb565b1561100857604051633ee5aeb560e01b815260040160405180910390fd5b7f9b779b17422d0df92223018b32b4d1fa46e071723d6817e2486d003becc55f0090565b5f6112e2610fd8565b54600160401b900460ff16919050565b806001600160a01b03163b5f0361131e5780604051634c9c8ce360e01b815260040161051691906115e8565b5f5160206146035f395f51905f5280546001600160a01b0319166001600160a01b0392909216919091179055565b60605f6113598484611410565b905080801561137a57505f3d118061137a57505f846001600160a01b03163b115b1561138f57611387611423565b915050610495565b80156113b05783604051639996b31560e01b815260040161051691906115e8565b3d156113c3576113be61143c565b610f5b565b60405163d6bda27560e01b815260040160405180910390fd5b34156110085760405163b398979f60e01b815260040160405180910390fd5b5f60026114096111c96112b5565b5414919050565b5f5f5f835160208501865af49392505050565b6040513d81523d5f602083013e3d602001810160405290565b6040513d5f823e3d81fd5b612bb380611a3083390190565b5f60208284031215611464575f5ffd5b81356001600160e01b03198116811461147b575f5ffd5b9392505050565b5f60208284031215611492575f5ffd5b5035919050565b80356001600160a01b03811681146114af575f5ffd5b919050565b5f5f604083850312156114c5575f5ffd5b823591506114d560208401611499565b90509250929050565b5f5f604083850312156114ef575f5ffd5b6114f883611499565b91506114d560208401611499565b634e487b7160e01b5f52604160045260245ffd5b5f5f6040838503121561152b575f5ffd5b61153483611499565b915060208301356001600160401b0381111561154e575f5ffd5b8301601f8101851361155e575f5ffd5b80356001600160401b0381111561157757611577611506565b604051601f8201601f19908116603f011681016001600160401b03811182821017156115a5576115a5611506565b6040528181528282016020018710156115bc575f5ffd5b816020840160208301375f602083830101528093505050509250929050565b6001600160a01b03169052565b6001600160a01b0391909116815260200190565b5f6020828403121561160c575f5ffd5b61147b82611499565b5f81518084528060208401602086015e5f602082860101526020601f19601f83011685010191505092915050565b602081525f61147b6020830184611615565b5f5f83601f840112611665575f5ffd5b5081356001600160401b0381111561167b575f5ffd5b602083019150836020828501011115611692575f5ffd5b9250929050565b5f5f5f5f5f5f608087890312156116ae575f5ffd5b86356001600160401b038111156116c3575f5ffd5b6116cf89828a01611655565b90975095505060208701356001600160401b038111156116ed575f5ffd5b6116f989828a01611655565b979a9699509760408101359660609091013595509350505050565b602080825282518282018190525f918401906040840190835b8181101561174b57835183526020938401939092019160010161172d565b509095945050505050565b60208152815160208201525f6020830151610120604084015261177d610140840182611615565b90506040840151601f1984830301606085015261179a8282611615565b9150506060840151608084015260808401516117b960a08501826115db565b5060a08401516117cc60c08501826115db565b5060c084015160e084015260e08401516117eb61010085018215159052565b506101008401516101208401528091505092915050565b5f6001820161181f57634e487b7160e01b5f52601160045260245ffd5b5060010190565b81835281816020850137505f828201602090810191909152601f909101601f19169091010190565b60c081525f61186160c083018a8c611826565b828103602084015261187481898b611826565b604084019790975250506001600160a01b03938416606082015291909216608082015260a00152949350505050565b600181811c908216806118b757607f821691505b6020821081036118d557634e487b7160e01b5f52602260045260245ffd5b50919050565b601f8211156105b757805f5260205f20601f840160051c810160208510156119005750805b601f840160051c820191505b8181101561191f575f815560010161190c565b5050505050565b6001600160401b0383111561193d5761193d611506565b6119518361194b83546118a3565b836118db565b5f601f841160018114611982575f851561196b5750838201355b5f19600387901b1c1916600186901b17835561191f565b5f83815260208120601f198716915b828110156119b15786850135825560209485019460019092019101611991565b50868210156119cd575f1960f88860031b161c19848701351681555b505060018560011b0183555050505050565b606081525f6119f2606083018789611826565b8281036020840152611a05818688611826565b9150508260408301529695505050505050565b5f60208284031215611a28575f5ffd5b505191905056fe610180604052348015610010575f5ffd5b50604051612bb3380380612bb383398101604081905261002f91610416565b6040805180820190915260018152603160f81b602082015286908190868289600361005a8382610537565b5060046100678282610537565b505050805f036100915760405163392e1e2760e01b81525f60048201526024015b60405180910390fd5b60805261009f826006610244565b610140526100ae816007610244565b61016052815160208084019190912061010052815190820120610120524660c05261013c6101005161012051604080517f8b73c3c69bb8fe3d512ecc4cf759cc79239f7b179b0ffacaa9a75d522b39400f60208201529081019290925260608201524660808201523060a08201525f9060c00160405160208183030381529060405280519060200120905090565b60a05250503060e0525060017f9b779b17422d0df92223018b32b4d1fa46e071723d6817e2486d003becc55f00556001600160a01b0383166101915760405163d92e233d60e01b815260040160405180910390fd5b6001600160a01b0382166101b85760405163d92e233d60e01b815260040160405180910390fd5b600d80546001600160a01b0319166001600160a01b038416179055600e8190556101e25f84610276565b5061020d7f9f2df0fed2c77648de5860a4cc508cd0818c85b8b8a1ab4ceeef8d981c8956a684610276565b506102387f65d7a28e3265b37a6474929f336521b332c1681b933f6cb9f3376673440d862a84610276565b50505050505050610649565b5f60208351101561025f5761025883610321565b9050610270565b8161026a8482610537565b5060ff90505b92915050565b5f828152600c602090815260408083206001600160a01b038516845290915281205460ff1661031a575f838152600c602090815260408083206001600160a01b03861684529091529020805460ff191660011790556102d23390565b6001600160a01b0316826001600160a01b0316847f2f8788117e7eff1d82e926ec794901d17c78024a50270940304540a733656f0d60405160405180910390a4506001610270565b505f610270565b5f5f829050601f8151111561034b578260405163305a27a960e01b815260040161008891906105f1565b805161035682610626565b179392505050565b634e487b7160e01b5f52604160045260245ffd5b5f82601f830112610381575f5ffd5b81516001600160401b0381111561039a5761039a61035e565b604051601f8201601f19908116603f011681016001600160401b03811182821017156103c8576103c861035e565b6040528181528382016020018510156103df575f5ffd5b8160208501602083015e5f918101602001919091529392505050565b80516001600160a01b0381168114610411575f5ffd5b919050565b5f5f5f5f5f5f60c0878903121561042b575f5ffd5b86516001600160401b03811115610440575f5ffd5b61044c89828a01610372565b602089015190975090506001600160401b03811115610469575f5ffd5b61047589828a01610372565b6040890151909650945061048d9050606088016103fb565b925061049b608088016103fb565b91505f60a08801519050809150509295509295509295565b600181811c908216806104c757607f821691505b6020821081036104e557634e487b7160e01b5f52602260045260245ffd5b50919050565b601f82111561053257805f5260205f20601f840160051c810160208510156105105750805b601f840160051c820191505b8181101561052f575f815560010161051c565b50505b505050565b81516001600160401b038111156105505761055061035e565b6105648161055e84546104b3565b846104eb565b6020601f821160018114610596575f831561057f5750848201515b5f19600385901b1c1916600184901b17845561052f565b5f84815260208120601f198516915b828110156105c557878501518255602094850194600190920191016105a5565b50848210156105e257868401515f19600387901b60f8161c191681555b50505050600190811b01905550565b602081525f82518060208401528060208501604085015e5f604082850101526040601f19601f83011684010191505092915050565b805160208083015191908110156104e5575f1960209190910360031b1b16919050565b60805160a05160c05160e0516101005161012051610140516101605161250f6106a45f395f6111d501525f6111a801525f610e2201525f610dfa01525f610d5501525f610d7f01525f610da901525f610659015261250f5ff3fe608060405234801561000f575f5ffd5b50600436106101e1575f3560e01c806301ffc9a7146101e557806306fdde031461020d578063095ea7b31461022257806318160ddd1461023557806323b872dd14610247578063248a9ca31461025a5780632f2ff15d1461026d578063313ce56714610282578063355274ea146102915780633644e5151461029957806336568abe146102a15780633a46b1a8146102b45780633f4ba83a146102c757806340c10f19146102cf57806342966c68146102e257806344de240a146102f55780634bf5d7e9146102fe578063587cde1e146103285780635c19a95c146103485780635c975abb1461035b5780636fcfff451461036657806370a082311461038e5780637ecebe00146103a15780638456cb59146103b457806384b0196e146103bc5780638e539e8c146103d757806391d14854146103ea57806391ddadf4146103fd57806395d89b41146104135780639ab24eb01461041b578063a217fddf1461042e578063a576b5da14610435578063a9059cbb14610448578063c3cda5201461045b578063d505accf1461046e578063d539139314610481578063d547741f14610495578063dd62ed3e146104a8578063e63ab1e9146104bb578063f1127ed8146104cf578063ff7bce231461050e575b5f5ffd5b6101f86101f3366004611fe2565b610521565b60405190151581526020015b60405180910390f35b610215610557565b6040516102049190612037565b6101f8610230366004612064565b6105e7565b6002545b604051908152602001610204565b6101f861025536600461208c565b6105fe565b6102396102683660046120c6565b610621565b61028061027b3660046120dd565b610635565b005b60405160128152602001610204565b610239610657565b61023961067b565b6102806102af3660046120dd565b610689565b6102396102c2366004612064565b6106c1565b6102806106fb565b6102806102dd366004612064565b61071d565b6102806102f03660046120c6565b6107b8565b610239600e5481565b60408051808201909152600e81526d06d6f64653d74696d657374616d760941b6020820152610215565b61033b610336366004612107565b610807565b6040516102049190612120565b610280610356366004612107565b610824565b60055460ff166101f8565b610379610374366004612107565b610833565b60405163ffffffff9091168152602001610204565b61023961039c366004612107565b61083d565b6102396103af366004612107565b610857565b610280610861565b6103c4610880565b6040516102049796959493929190612134565b6102396103e53660046120c6565b6108c2565b6101f86103f83660046120dd565b6108e6565b60405165ffffffffffff42168152602001610204565b610215610910565b610239610429366004612107565b61091f565b6102395f81565b610280610443366004612107565b61093f565b6101f8610456366004612064565b6109c2565b6102806104693660046121da565b6109cf565b61028061047c36600461222e565b610a90565b6102395f51602061249a5f395f51905f5281565b6102806104a33660046120dd565b610b9a565b6102396104b6366004612294565b610bb6565b6102395f51602061247a5f395f51905f5281565b6104e26104dd3660046122bc565b610be0565b60408051825165ffffffffffff1681526020928301516001600160d01b03169281019290925201610204565b600d5461033b906001600160a01b031681565b5f6001600160e01b03198216637965db0b60e01b148061055157506301ffc9a760e01b6001600160e01b03198316145b92915050565b606060038054610566906122f9565b80601f0160208091040260200160405190810160405280929190818152602001828054610592906122f9565b80156105dd5780601f106105b4576101008083540402835291602001916105dd565b820191905f5260205f20905b8154815290600101906020018083116105c057829003601f168201915b5050505050905090565b5f336105f4818585610bf9565b5060019392505050565b5f3361060b858285610c06565b610616858585610c51565b506001949350505050565b5f908152600c602052604090206001015490565b61063e82610621565b61064781610cae565b6106518383610cb8565b50505050565b7f000000000000000000000000000000000000000000000000000000000000000090565b5f610684610d49565b905090565b6001600160a01b03811633146106b25760405163334bd91960e11b815260040160405180910390fd5b6106bc8282610e72565b505050565b5f6106eb6106ce83610edd565b6001600160a01b0385165f908152600a6020526040902090610f21565b6001600160d01b03169392505050565b5f51602061247a5f395f51905f5261071281610cae565b61071a610fd1565b50565b5f51602061249a5f395f51905f5261073481610cae565b61073c61101d565b6001600160a01b0383166107635760405163d92e233d60e01b815260040160405180910390fd5b61076d8383611038565b826001600160a01b03167f3f2c9d57c068687834f0de942a9babb9e5acab57d516d3480a3c16ee165a4273836040516107a891815260200190565b60405180910390a26106bc61106c565b6107c061101d565b6107ca3382611079565b60405181815233907ffd38818f5291bf0bb3a2a48aadc06ba8757865d1dabd804585338aab3009dcb69060200160405180910390a261071a61106c565b6001600160a01b039081165f908152600960205260409020541690565b3361082f81836110ad565b5050565b5f61055182611126565b6001600160a01b03165f9081526020819052604090205490565b5f61055182611147565b5f51602061247a5f395f51905f5261087881610cae565b61071a611164565b5f6060805f5f5f60606108916111a1565b6108996111ce565b604080515f80825260208201909252600f60f81b9b939a50919850469750309650945092509050565b5f6108d76108cf83610edd565b600b90610f21565b6001600160d01b031692915050565b5f918252600c602090815260408084206001600160a01b0393909316845291905290205460ff1690565b606060048054610566906122f9565b6001600160a01b0381165f908152600a602052604081206108d7906111fb565b5f61094981610cae565b6001600160a01b0382166109705760405163d92e233d60e01b815260040160405180910390fd5b600d80546001600160a01b038481166001600160a01b0319831681179093556040519116919082907f14d841f5311a74e193fb09995a04bffb58b29d4a1b991c52875496ff4313ad49905f90a3505050565b5f336105f4818585610c51565b834211156109f857604051632341d78760e11b8152600481018590526024015b60405180910390fd5b604080517fe48329057bfd03d55e49b547132e39cffd9c1820ad7b9d4c5307691425d15adf60208201526001600160a01b0388169181019190915260608101869052608081018590525f90610a7190610a699060a00160405160208183030381529060405280519060200120611232565b85858561125e565b9050610a7d818761128a565b610a8781886110ad565b50505050505050565b83421115610ab45760405163313c898160e11b8152600481018590526024016109ef565b5f7f6e71edae12b1b97f4d1f60370fef10105fa2faae0126114a169c64845d6126c9888888610ae28c6112ba565b6040805160208101969096526001600160a01b0394851690860152929091166060840152608083015260a082015260c0810186905260e0016040516020818303038152906040528051906020012090505f610b3c82611232565b90505f610b4b8287878761125e565b9050896001600160a01b0316816001600160a01b031614610b8357808a6040516325c0072360e11b81526004016109ef929190612331565b610b8e8a8a8a610bf9565b50505050505050505050565b610ba382610621565b610bac81610cae565b6106518383610e72565b6001600160a01b039182165f90815260016020908152604080832093909416825291909152205490565b610be8611fcc565b610bf283836112dc565b9392505050565b6106bc8383836001611305565b5f610c118484610bb6565b90505f198110156106515781811015610c4357828183604051637dc7a0d960e11b81526004016109ef9392919061234b565b61065184848484035f611305565b6001600160a01b038316610c7a575f604051634b637e8f60e11b81526004016109ef9190612120565b6001600160a01b038216610ca3575f60405163ec442f0560e01b81526004016109ef9190612120565b6106bc8383836113d7565b61071a81336114c2565b5f610cc383836108e6565b610d42575f838152600c602090815260408083206001600160a01b03861684529091529020805460ff19166001179055610cfa3390565b6001600160a01b0316826001600160a01b0316847f2f8788117e7eff1d82e926ec794901d17c78024a50270940304540a733656f0d60405160405180910390a4506001610551565b505f610551565b5f306001600160a01b037f000000000000000000000000000000000000000000000000000000000000000016148015610da157507f000000000000000000000000000000000000000000000000000000000000000046145b15610dcb57507f000000000000000000000000000000000000000000000000000000000000000090565b610684604080517f8b73c3c69bb8fe3d512ecc4cf759cc79239f7b179b0ffacaa9a75d522b39400f60208201527f0000000000000000000000000000000000000000000000000000000000000000918101919091527f000000000000000000000000000000000000000000000000000000000000000060608201524660808201523060a08201525f9060c00160405160208183030381529060405280519060200120905090565b5f610e7d83836108e6565b15610d42575f838152600c602090815260408083206001600160a01b0386168085529252808320805460ff1916905551339286917ff6391f5c32d9c69d2a47ea670b442974b53935d1edc7fd64eb21e047a839171b9190a4506001610551565b5f4265ffffffffffff81168310610f1857604051637669fc0f60e11b81526004810184905265ffffffffffff821660248201526044016109ef565b610bf2836114ed565b81545f9081816005811115610f7d575f610f3a8461151e565b610f449085612380565b5f8881526020902090915081015465ffffffffffff9081169087161015610f6d57809150610f7b565b610f78816001612393565b92505b505b5f610f8a87878585611670565b90508015610fc457610fae87610fa1600184612380565b5f91825260209091200190565b54600160301b90046001600160d01b0316610fc6565b5f5b979650505050505050565b610fd96116c6565b6005805460ff191690557f5db9ee0a495bf2e6ff9c91a7834c1ba4fdd244a5e8aa4e537bd38aeae4b073aa335b6040516110139190612120565b60405180910390a1565b6110256116eb565b6002611035611032611711565b90565b55565b6001600160a01b038216611061575f60405163ec442f0560e01b81526004016109ef9190612120565b61082f5f83836113d7565b6001611035611032611711565b6001600160a01b0382166110a2575f604051634b637e8f60e11b81526004016109ef9190612120565b61082f825f836113d7565b5f6110b783610807565b6001600160a01b038481165f8181526009602052604080822080546001600160a01b031916888616908117909155905194955093928516927f3134e8a2e6d97e929a7e54011ea5485d7d196dd5f0ba4d4ef95803e8e3fc257f9190a46106bc818361112186611735565b61173f565b6001600160a01b0381165f908152600a602052604081205461055190611870565b6001600160a01b0381165f90815260086020526040812054610551565b61116c61189b565b6005805460ff191660011790557f62e78cea01bee320cd4e420270b5ea74000d11b0c9f74754ebdbfc544b05a2586110063390565b60606106847f000000000000000000000000000000000000000000000000000000000000000060066118bf565b60606106847f000000000000000000000000000000000000000000000000000000000000000060076118bf565b80545f90801561122a5761121483610fa1600184612380565b54600160301b90046001600160d01b0316610bf2565b5f9392505050565b5f61055161123e610d49565b8360405161190160f01b8152600281019290925260228201526042902090565b5f5f5f5f61126e88888888611968565b92509250925061127e8282611a26565b50909695505050505050565b5f611294836112ba565b90508082146106bc5782816040516301d4b62360e61b81526004016109ef9291906123a6565b6001600160a01b03165f90815260086020526040902080546001810190915590565b6112e4611fcc565b6001600160a01b0383165f908152600a60205260409020610bf29083611ade565b6001600160a01b03841661132e575f60405163e602df0560e01b81526004016109ef9190612120565b6001600160a01b038316611357575f604051634a1406b160e11b81526004016109ef9190612120565b6001600160a01b038085165f908152600160209081526040808320938716835292905220829055801561065157826001600160a01b0316846001600160a01b03167f8c5be1e5ebec7d5bd14f71427d1e84f3dd0314c0f7b2291e5b200ac8c7c3b925846040516113c991815260200190565b60405180910390a350505050565b6001600160a01b038316158015906113f757506001600160a01b03821615155b156114b757600d546001600160a01b0316611425576040516398123e3f60e01b815260040160405180910390fd5b600d546040516346ab89ef60e11b81526001600160a01b0390911690638d5713de906114579086908690600401612331565b602060405180830381865afa158015611472573d5f5f3e3d5ffd5b505050506040513d601f19601f8201168201806040525081019061149691906123bf565b6114b75782826040516379f913bb60e11b81526004016109ef929190612331565b6106bc838383611b40565b6114cc82826108e6565b61082f57808260405163e2517d3f60e01b81526004016109ef9291906123a6565b5f65ffffffffffff82111561151a576030826040516306dfcc6560e41b81526004016109ef9291906123de565b5090565b5f6001821161152b575090565b816001600160801b82106115445760809190911c9060401b5b600160401b821061155a5760409190911c9060201b5b600160201b82106115705760209190911c9060101b5b6201000082106115855760109190911c9060081b5b61010082106115995760089190911c9060041b5b601082106115ac5760049190911c9060021b5b600482106115b85760011b5b600302600190811c908185816115d0576115d06123f1565b048201901c905060018185816115e8576115e86123f1565b048201901c90506001818581611600576116006123f1565b048201901c90506001818581611618576116186123f1565b048201901c90506001818581611630576116306123f1565b048201901c90506001818581611648576116486123f1565b048201901c9050611667818581611661576116616123f1565b04821190565b90039392505050565b5f5b818310156116be575f85815260209020838316600285851804019081015465ffffffffffff868116911611156116aa578092506116b8565b6116b5816001612393565b93505b50611672565b509392505050565b60055460ff166116e957604051638dfc202b60e01b815260040160405180910390fd5b565b6116f3611ba0565b156116e957604051633ee5aeb560e01b815260040160405180910390fd5b7f9b779b17422d0df92223018b32b4d1fa46e071723d6817e2486d003becc55f0090565b5f6105518261083d565b816001600160a01b0316836001600160a01b03161415801561176057505f81115b156106bc576001600160a01b038316156117eb576001600160a01b0383165f908152600a6020526040812081906117a290611bb561179d86611bc0565b611bee565b6001600160d01b031691506001600160d01b03169150846001600160a01b03165f5160206124ba5f395f51905f5283836040516117e0929190612405565b60405180910390a250505b6001600160a01b038216156106bc576001600160a01b0382165f908152600a60205260408120819061182390611c1f61179d86611bc0565b6001600160d01b031691506001600160d01b03169150836001600160a01b03165f5160206124ba5f395f51905f528383604051611861929190612405565b60405180910390a25050505050565b5f63ffffffff82111561151a576020826040516306dfcc6560e41b81526004016109ef9291906123de565b60055460ff16156116e95760405163d93c066560e01b815260040160405180910390fd5b606060ff83146118d9576118d283611c2a565b9050610551565b8180546118e5906122f9565b80601f0160208091040260200160405190810160405280929190818152602001828054611911906122f9565b801561195c5780601f106119335761010080835404028352916020019161195c565b820191905f5260205f20905b81548152906001019060200180831161193f57829003601f168201915b50505050509050610551565b5f80806fa2a8918ca85bafe22016d0b997e4df60600160ff1b0384111561199757505f91506003905082611a1c565b604080515f808252602082018084528a905260ff891692820192909252606081018790526080810186905260019060a0016020604051602081039080840390855afa1580156119e8573d5f5f3e3d5ffd5b5050604051601f1901519150506001600160a01b038116611a1357505f925060019150829050611a1c565b92505f91508190505b9450945094915050565b5f826003811115611a3957611a39612413565b03611a42575050565b6001826003811115611a5657611a56612413565b03611a745760405163f645eedf60e01b815260040160405180910390fd5b6002826003811115611a8857611a88612413565b03611aa95760405163fce698f760e01b8152600481018290526024016109ef565b6003826003811115611abd57611abd612413565b0361082f576040516335e2f38360e21b8152600481018290526024016109ef565b611ae6611fcc565b825f018263ffffffff1681548110611b0057611b00612427565b5f9182526020918290206040805180820190915291015465ffffffffffff81168252600160301b90046001600160d01b0316918101919091529392505050565b611b4b838383611c67565b6001600160a01b038316611b95575f611b6360025490565b90506001600160d01b0380821115611b92578181604051630e58ae9360e11b81526004016109ef929190612405565b50505b6106bc838383611c7a565b5f6002611bae611032611711565b5414919050565b5f610bf2828461243b565b5f6001600160d01b0382111561151a5760d0826040516306dfcc6560e41b81526004016109ef9291906123de565b5f80611c1242611c0a611c00886111fb565b868863ffffffff16565b879190611cd9565b915091505b935093915050565b5f610bf2828461245a565b60605f611c3683611ce6565b6040805160208082528183019092529192505f91906020820181803683375050509182525060208101929092525090565b611c6f61189b565b6106bc838383611d0d565b6001600160a01b038316611c9c57611c99600b611c1f61179d84611bc0565b50505b6001600160a01b038216611cbe57611cbb600b611bb561179d84611bc0565b50505b6106bc611cca84610807565b611cd384610807565b8361173f565b5f80611c12858585611d69565b5f60ff8216601f81111561055157604051632cd44ac360e21b815260040160405180910390fd5b611d18838383611eb9565b6001600160a01b0383166106bc575f611d2f610657565b90505f611d3b60025490565b905081811115611d6257808260405163279e7e1560e21b81526004016109ef929190612405565b5050505050565b82545f9081908015611e5f575f611d8587610fa1600185612380565b805490915065ffffffffffff80821691600160301b90046001600160d01b0316908816821115611dc857604051632520601d60e01b815260040160405180910390fd5b8765ffffffffffff168265ffffffffffff1603611e0157825465ffffffffffff16600160301b6001600160d01b03891602178355611e51565b6040805180820190915265ffffffffffff808a1682526001600160d01b03808a1660208085019182528d54600181018f555f8f81529190912094519151909216600160301b029216919091179101555b9450859350611c1792505050565b50506040805180820190915265ffffffffffff80851682526001600160d01b0380851660208085019182528854600181018a555f8a815291822095519251909316600160301b029190931617920191909155905081611c17565b6001600160a01b038316611ee3578060025f828254611ed89190612393565b90915550611f409050565b6001600160a01b0383165f9081526020819052604090205481811015611f225783818360405163391434e360e21b81526004016109ef9392919061234b565b6001600160a01b0384165f9081526020819052604090209082900390555b6001600160a01b038216611f5c57600280548290039055611f7a565b6001600160a01b0382165f9081526020819052604090208054820190555b816001600160a01b0316836001600160a01b03167fddf252ad1be2c89b69c2b068fc378daa952ba7f163c4a11628f55a4df523b3ef83604051611fbf91815260200190565b60405180910390a3505050565b604080518082019091525f808252602082015290565b5f60208284031215611ff2575f5ffd5b81356001600160e01b031981168114610bf2575f5ffd5b5f81518084528060208401602086015e5f602082860101526020601f19601f83011685010191505092915050565b602081525f610bf26020830184612009565b80356001600160a01b038116811461205f575f5ffd5b919050565b5f5f60408385031215612075575f5ffd5b61207e83612049565b946020939093013593505050565b5f5f5f6060848603121561209e575f5ffd5b6120a784612049565b92506120b560208501612049565b929592945050506040919091013590565b5f602082840312156120d6575f5ffd5b5035919050565b5f5f604083850312156120ee575f5ffd5b823591506120fe60208401612049565b90509250929050565b5f60208284031215612117575f5ffd5b610bf282612049565b6001600160a01b0391909116815260200190565b60ff60f81b8816815260e060208201525f61215260e0830189612009565b82810360408401526121648189612009565b606084018890526001600160a01b038716608085015260a0840186905283810360c0850152845180825260208087019350909101905f5b818110156121b957835183526020938401939092019160010161219b565b50909b9a5050505050505050505050565b803560ff8116811461205f575f5ffd5b5f5f5f5f5f5f60c087890312156121ef575f5ffd5b6121f887612049565b95506020870135945060408701359350612214606088016121ca565b9598949750929560808101359460a0909101359350915050565b5f5f5f5f5f5f5f60e0888a031215612244575f5ffd5b61224d88612049565b965061225b60208901612049565b95506040880135945060608801359350612277608089016121ca565b9699959850939692959460a0840135945060c09093013592915050565b5f5f604083850312156122a5575f5ffd5b6122ae83612049565b91506120fe60208401612049565b5f5f604083850312156122cd575f5ffd5b6122d683612049565b9150602083013563ffffffff811681146122ee575f5ffd5b809150509250929050565b600181811c9082168061230d57607f821691505b60208210810361232b57634e487b7160e01b5f52602260045260245ffd5b50919050565b6001600160a01b0392831681529116602082015260400190565b6001600160a01b039390931683526020830191909152604082015260600190565b634e487b7160e01b5f52601160045260245ffd5b818103818111156105515761055161236c565b808201808211156105515761055161236c565b6001600160a01b03929092168252602082015260400190565b5f602082840312156123cf575f5ffd5b81518015158114610bf2575f5ffd5b60ff929092168252602082015260400190565b634e487b7160e01b5f52601260045260245ffd5b918252602082015260400190565b634e487b7160e01b5f52602160045260245ffd5b634e487b7160e01b5f52603260045260245ffd5b6001600160d01b0382811682821603908111156105515761055161236c565b6001600160d01b0381811683821601908111156105515761055161236c56fe65d7a28e3265b37a6474929f336521b332c1681b933f6cb9f3376673440d862a9f2df0fed2c77648de5860a4cc508cd0818c85b8b8a1ab4ceeef8d981c8956a6dec2bacdd2f05b59de34da9b523dff8be42e5e38e818c82fdb0bae774387a724a2646970667358221220a14dd505fcbb32fcae4d71c65025f80d6894f69aed802bdf12cf2ae25114524164736f6c634300081c0033e28434228950b641dbbc0178de89daa359a87c6ee0d8399aeace52a98fe902b9360894a13ba1a3210667c828492db98dca3e2076cc3735a920a3ca505d382bbca2646970667358221220889db6ba2207294c30e767cbf3a6f829078fd123b9709f1bdf79282b8b135cd964736f6c634300081c0033","linkReferences":{}},"methodIdentifiers":{"CUSTODIAN_ROLE()":"c79445d0","DEFAULT_ADMIN_ROLE()":"a217fddf","UPGRADE_INTERFACE_VERSION()":"ad3cb1cc","allAssetIds(uint256)":"e814d66b","complianceManager()":"ff7bce23","deactivateAsset(uint256)":"319af5e0","getAllAssetIds()":"e122f907","getAsset(uint256)":"eac8f5b8","getRoleAdmin(bytes32)":"248a9ca3","getTokenContract(uint256)":"a07e5199","grantRole(bytes32,address)":"2f2ff15d","hasRole(bytes32,address)":"91d14854","initialize(address,address)":"485cc955","isAssetActive(uint256)":"22e900c2","nextAssetId()":"8ed91318","proxiableUUID()":"52d1902d","reactivateAsset(uint256)":"a6d2d2eb","registerAsset(string,string,bytes32,uint256)":"b823e263","renounceRole(bytes32,address)":"36568abe","revokeRole(bytes32,address)":"d547741f","setComplianceManager(address)":"a576b5da","supportsInterface(bytes4)":"01ffc9a7","totalAssets()":"01e1d114","updateCustodian(uint256,address)":"a12c5487","upgradeToAndCall(address,bytes)":"4f1ef286"},"id":74}