{"abi":[{"type":"constructor","inputs":[{"name":"name_","type":"string","internalType":"string"},{"name":"symbol_","type":"string","internalType":"string"},{"name":"cap_","type":"uint256","internalType":"uint256"},{"name":"admin","type":"address","internalType":"address"},{"name":"complianceManager_","type":"address","internalType":"address"},{"name":"assetId_","type":"uint256","internalType":"uint256"}],"stateMutability":"nonpayable"},{"type":"function","name":"CLOCK_MODE","inputs":[],"outputs":[{"name":"","type":"string","internalType":"string"}],"stateMutability":"pure"},{"type":"function","name":"DEFAULT_ADMIN_ROLE","inputs":[],"outputs":[{"name":"","type":"bytes32","internalType":"bytes32"}],"stateMutability":"view"},{"type":"function","name":"DOMAIN_SEPARATOR","inputs":[],"outputs":[{"name":"","type":"bytes32","internalType":"bytes32"}],"stateMutability":"view"},{"type":"function","name":"MINTER_ROLE","inputs":[],"outputs":[{"name":"","type":"bytes32","internalType":"bytes32"}],"stateMutability":"view"},{"type":"function","name":"PAUSER_ROLE","inputs":[],"outputs":[{"name":"","type":"bytes32","internalType":"bytes32"}],"stateMutability":"view"},{"type":"function","name":"allowance","inputs":[{"name":"owner","type":"address","internalType":"address"},{"name":"spender","type":"address","internalType":"address"}],"outputs":[{"name":"","type":"uint256","internalType":"uint256"}],"stateMutability":"view"},{"type":"function","name":"approve","inputs":[{"name":"spender","type":"address","internalType":"address"},{"name":"value","type":"uint256","internalType":"uint256"}],"outputs":[{"name":"","type":"bool","internalType":"bool"}],"stateMutability":"nonpayable"},{"type":"function","name":"assetId","inputs":[],"outputs":[{"name":"","type":"uint256","internalType":"uint256"}],"stateMutability":"view"},{"type":"function","name":"balanceOf","inputs":[{"name":"account","type":"address","internalType":"address"}],"outputs":[{"name":"","type":"uint256","internalType":"uint256"}],"stateMutability":"view"},{"type":"function","name":"burn","inputs":[{"name":"amount","type":"uint256","internalType":"uint256"}],"outputs":[],"stateMutability":"nonpayable"},{"type":"function","name":"cap","inputs":[],"outputs":[{"name":"","type":"uint256","internalType":"uint256"}],"stateMutability":"view"},{"type":"function","name":"checkpoints","inputs":[{"name":"account","type":"address","internalType":"address"},{"name":"pos","type":"uint32","internalType":"uint32"}],"outputs":[{"name":"","type":"tuple","internalType":"struct Checkpoints.Checkpoint208","components":[{"name":"_key","type":"uint48","internalType":"uint48"},{"name":"_value","type":"uint208","internalType":"uint208"}]}],"stateMutability":"view"},{"type":"function","name":"clock","inputs":[],"outputs":[{"name":"","type":"uint48","internalType":"uint48"}],"stateMutability":"view"},{"type":"function","name":"complianceManager","inputs":[],"outputs":[{"name":"","type":"address","internalType":"contract IComplianceManager"}],"stateMutability":"view"},{"type":"function","name":"decimals","inputs":[],"outputs":[{"name":"","type":"uint8","internalType":"uint8"}],"stateMutability":"view"},{"type":"function","name":"delegate","inputs":[{"name":"delegatee","type":"address","internalType":"address"}],"outputs":[],"stateMutability":"nonpayable"},{"type":"function","name":"delegateBySig","inputs":[{"name":"delegatee","type":"address","internalType":"address"},{"name":"nonce","type":"uint256","internalType":"uint256"},{"name":"expiry","type":"uint256","internalType":"uint256"},{"name":"v","type":"uint8","internalType":"uint8"},{"name":"r","type":"bytes32","internalType":"bytes32"},{"name":"s","type":"bytes32","internalType":"bytes32"}],"outputs":[],"stateMutability":"nonpayable"},{"type":"function","name":"delegates","inputs":[{"name":"account","type":"address","internalType":"address"}],"outputs":[{"name":"","type":"address","internalType":"address"}],"stateMutability":"view"},{"type":"function","name":"eip712Domain","inputs":[],"outputs":[{"name":"fields","type":"bytes1","internalType":"bytes1"},{"name":"name","type":"string","internalType":"string"},{"name":"version","type":"string","internalType":"string"},{"name":"chainId","type":"uint256","internalType":"uint256"},{"name":"verifyingContract","type":"address","internalType":"address"},{"name":"salt","type":"bytes32","internalType":"bytes32"},{"name":"extensions","type":"uint256[]","internalType":"uint256[]"}],"stateMutability":"view"},{"type":"function","name":"getPastTotalSupply","inputs":[{"name":"timepoint","type":"uint256","internalType":"uint256"}],"outputs":[{"name":"","type":"uint256","internalType":"uint256"}],"stateMutability":"view"},{"type":"function","name":"getPastVotes","inputs":[{"name":"account","type":"address","internalType":"address"},{"name":"timepoint","type":"uint256","internalType":"uint256"}],"outputs":[{"name":"","type":"uint256","internalType":"uint256"}],"stateMutability":"view"},{"type":"function","name":"getRoleAdmin","inputs":[{"name":"role","type":"bytes32","internalType":"bytes32"}],"outputs":[{"name":"","type":"bytes32","internalType":"bytes32"}],"stateMutability":"view"},{"type":"function","name":"getVotes","inputs":[{"name":"account","type":"address","internalType":"address"}],"outputs":[{"name":"","type":"uint256","internalType":"uint256"}],"stateMutability":"view"},{"type":"function","name":"grantRole","inputs":[{"name":"role","type":"bytes32","internalType":"bytes32"},{"name":"account","type":"address","internalType":"address"}],"outputs":[],"stateMutability":"nonpayable"},{"type":"function","name":"hasRole","inputs":[{"name":"role","type":"bytes32","internalType":"bytes32"},{"name":"account","type":"address","internalType":"address"}],"outputs":[{"name":"","type":"bool","internalType":"bool"}],"stateMutability":"view"},{"type":"function","name":"mint","inputs":[{"name":"to","type":"address","internalType":"address"},{"name":"amount","type":"uint256","internalType":"uint256"}],"outputs":[],"stateMutability":"nonpayable"},{"type":"function","name":"name","inputs":[],"outputs":[{"name":"","type":"string","internalType":"string"}],"stateMutability":"view"},{"type":"function","name":"nonces","inputs":[{"name":"owner","type":"address","internalType":"address"}],"outputs":[{"name":"","type":"uint256","internalType":"uint256"}],"stateMutability":"view"},{"type":"function","name":"numCheckpoints","inputs":[{"name":"account","type":"address","internalType":"address"}],"outputs":[{"name":"","type":"uint32","internalType":"uint32"}],"stateMutability":"view"},{"type":"function","name":"pause","inputs":[],"outputs":[],"stateMutability":"nonpayable"},{"type":"function","name":"paused","inputs":[],"outputs":[{"name":"","type":"bool","internalType":"bool"}],"stateMutability":"view"},{"type":"function","name":"permit","inputs":[{"name":"owner","type":"address","internalType":"address"},{"name":"spender","type":"address","internalType":"address"},{"name":"value","type":"uint256","internalType":"uint256"},{"name":"deadline","type":"uint256","internalType":"uint256"},{"name":"v","type":"uint8","internalType":"uint8"},{"name":"r","type":"bytes32","internalType":"bytes32"},{"name":"s","type":"bytes32","internalType":"bytes32"}],"outputs":[],"stateMutability":"nonpayable"},{"type":"function","name":"renounceRole","inputs":[{"name":"role","type":"bytes32","internalType":"bytes32"},{"name":"callerConfirmation","type":"address","internalType":"address"}],"outputs":[],"stateMutability":"nonpayable"},{"type":"function","name":"revokeRole","inputs":[{"name":"role","type":"bytes32","internalType":"bytes32"},{"name":"account","type":"address","internalType":"address"}],"outputs":[],"stateMutability":"nonpayable"},{"type":"function","name":"setComplianceManager","inputs":[{"name":"newManager","type":"address","internalType":"address"}],"outputs":[],"stateMutability":"nonpayable"},{"type":"function","name":"supportsInterface","inputs":[{"name":"interfaceId","type":"bytes4","internalType":"bytes4"}],"outputs":[{"name":"","type":"bool","internalType":"bool"}],"stateMutability":"view"},{"type":"function","name":"symbol","inputs":[],"outputs":[{"name":"","type":"string","internalType":"string"}],"stateMutability":"view"},{"type":"function","name":"totalSupply","inputs":[],"outputs":[{"name":"","type":"uint256","internalType":"uint256"}],"stateMutability":"view"},{"type":"function","name":"transfer","inputs":[{"name":"to","type":"address","internalType":"address"},{"name":"value","type":"uint256","internalType":"uint256"}],"outputs":[{"name":"","type":"bool","internalType":"bool"}],"stateMutability":"nonpayable"},{"type":"function","name":"transferFrom","inputs":[{"name":"from","type":"address","internalType":"address"},{"name":"to","type":"address","internalType":"address"},{"name":"value","type":"uint256","internalType":"uint256"}],"outputs":[{"name":"","type":"bool","internalType":"bool"}],"stateMutability":"nonpayable"},{"type":"function","name":"unpause","inputs":[],"outputs":[],"stateMutability":"nonpayable"},{"type":"event","name":"Approval","inputs":[{"name":"owner","type":"address","indexed":true,"internalType":"address"},{"name":"spender","type":"address","indexed":true,"internalType":"address"},{"name":"value","type":"uint256","indexed":false,"internalType":"uint256"}],"anonymous":false},{"type":"event","name":"ComplianceManagerUpdated","inputs":[{"name":"oldManager","type":"address","indexed":true,"internalType":"address"},{"name":"newManager","type":"address","indexed":true,"internalType":"address"}],"anonymous":false},{"type":"event","name":"DelegateChanged","inputs":[{"name":"delegator","type":"address","indexed":true,"internalType":"address"},{"name":"fromDelegate","type":"address","indexed":true,"internalType":"address"},{"name":"toDelegate","type":"address","indexed":true,"internalType":"address"}],"anonymous":false},{"type":"event","name":"DelegateVotesChanged","inputs":[{"name":"delegate","type":"address","indexed":true,"internalType":"address"},{"name":"previousVotes","type":"uint256","indexed":false,"internalType":"uint256"},{"name":"newVotes","type":"uint256","indexed":false,"internalType":"uint256"}],"anonymous":false},{"type":"event","name":"EIP712DomainChanged","inputs":[],"anonymous":false},{"type":"event","name":"Paused","inputs":[{"name":"account","type":"address","indexed":false,"internalType":"address"}],"anonymous":false},{"type":"event","name":"RoleAdminChanged","inputs":[{"name":"role","type":"bytes32","indexed":true,"internalType":"bytes32"},{"name":"previousAdminRole","type":"bytes32","indexed":true,"internalType":"bytes32"},{"name":"newAdminRole","type":"bytes32","indexed":true,"internalType":"bytes32"}],"anonymous":false},{"type":"event","name":"RoleGranted","inputs":[{"name":"role","type":"bytes32","indexed":true,"internalType":"bytes32"},{"name":"account","type":"address","indexed":true,"internalType":"address"},{"name":"sender","type":"address","indexed":true,"internalType":"address"}],"anonymous":false},{"type":"event","name":"RoleRevoked","inputs":[{"name":"role","type":"bytes32","indexed":true,"internalType":"bytes32"},{"name":"account","type":"address","indexed":true,"internalType":"address"},{"name":"sender","type":"address","indexed":true,"internalType":"address"}],"anonymous":false},{"type":"event","name":"TokensBurned","inputs":[{"name":"from","type":"address","indexed":true,"internalType":"address"},{"name":"amount","type":"uint256","indexed":false,"internalType":"uint256"}],"anonymous":false},{"type":"event","name":"TokensMinted","inputs":[{"name":"to","type":"address","indexed":true,"internalType":"address"},{"name":"amount","type":"uint256","indexed":false,"internalType":"uint256"}],"anonymous":false},{"type":"event","name":"Transfer","inputs":[{"name":"from","type":"address","indexed":true,"internalType":"address"},{"name":"to","type":"address","indexed":true,"internalType":"address"},{"name":"value","type":"uint256","indexed":false,"internalType":"uint256"}],"anonymous":false},{"type":"event","name":"Unpaused","inputs":[{"name":"account","type":"address","indexed":false,"internalType":"address"}],"anonymous":false},{"type":"error","name":"AccessControlBadConfirmation","inputs":[]},{"type":"error","name":"AccessControlUnauthorizedAccount","inputs":[{"name":"account","type":"address","internalType":"address"},{"name":"neededRole","type":"bytes32","internalType":"bytes32"}]},{"type":"error","name":"CheckpointUnorderedInsertion","inputs":[]},{"type":"error","name":"ComplianceManagerNotSet","inputs":[]},{"type":"error","name":"ECDSAInvalidSignature","inputs":[]},{"type":"error","name":"ECDSAInvalidSignatureLength","inputs":[{"name":"length","type":"uint256","internalType":"uint256"}]},{"type":"error","name":"ECDSAInvalidSignatureS","inputs":[{"name":"s","type":"bytes32","internalType":"bytes32"}]},{"type":"error","name":"ERC20ExceededCap","inputs":[{"name":"increasedSupply","type":"uint256","internalType":"uint256"},{"name":"cap","type":"uint256","internalType":"uint256"}]},{"type":"error","name":"ERC20ExceededSafeSupply","inputs":[{"name":"increasedSupply","type":"uint256","internalType":"uint256"},{"name":"cap","type":"uint256","internalType":"uint256"}]},{"type":"error","name":"ERC20InsufficientAllowance","inputs":[{"name":"spender","type":"address","internalType":"address"},{"name":"allowance","type":"uint256","internalType":"uint256"},{"name":"needed","type":"uint256","internalType":"uint256"}]},{"type":"error","name":"ERC20InsufficientBalance","inputs":[{"name":"sender","type":"address","internalType":"address"},{"name":"balance","type":"uint256","internalType":"uint256"},{"name":"needed","type":"uint256","internalType":"uint256"}]},{"type":"error","name":"ERC20InvalidApprover","inputs":[{"name":"approver","type":"address","internalType":"address"}]},{"type":"error","name":"ERC20InvalidCap","inputs":[{"name":"cap","type":"uint256","internalType":"uint256"}]},{"type":"error","name":"ERC20InvalidReceiver","inputs":[{"name":"receiver","type":"address","internalType":"address"}]},{"type":"error","name":"ERC20InvalidSender","inputs":[{"name":"sender","type":"address","internalType":"address"}]},{"type":"error","name":"ERC20InvalidSpender","inputs":[{"name":"spender","type":"address","internalType":"address"}]},{"type":"error","name":"ERC2612ExpiredSignature","inputs":[{"name":"deadline","type":"uint256","internalType":"uint256"}]},{"type":"error","name":"ERC2612InvalidSigner","inputs":[{"name":"signer","type":"address","internalType":"address"},{"name":"owner","type":"address","internalType":"address"}]},{"type":"error","name":"ERC5805FutureLookup","inputs":[{"name":"timepoint","type":"uint256","internalType":"uint256"},{"name":"clock","type":"uint48","internalType":"uint48"}]},{"type":"error","name":"ERC6372InconsistentClock","inputs":[]},{"type":"error","name":"EnforcedPause","inputs":[]},{"type":"error","name":"ExpectedPause","inputs":[]},{"type":"error","name":"InvalidAccountNonce","inputs":[{"name":"account","type":"address","internalType":"address"},{"name":"currentNonce","type":"uint256","internalType":"uint256"}]},{"type":"error","name":"InvalidShortString","inputs":[]},{"type":"error","name":"ReentrancyGuardReentrantCall","inputs":[]},{"type":"error","name":"SafeCastOverflowedUintDowncast","inputs":[{"name":"bits","type":"uint8","internalType":"uint8"},{"name":"value","type":"uint256","internalType":"uint256"}]},{"type":"error","name":"StringTooLong","inputs":[{"name":"str","type":"string","internalType":"string"}]},{"type":"error","name":"TransferNotCompliant","inputs":[{"name":"from","type":"address","internalType":"address"},{"name":"to","type":"address","internalType":"address"}]},{"type":"error","name":"VotesExpiredSignature","inputs":[{"name":"expiry","type":"uint256","internalType":"uint256"}]},{"type":"error","name":"ZeroAddress","inputs":[]}],"bytecode":{"object":"0x610180604052348015610010575f5ffd5b50604051612bb3380380612bb383398101604081905261002f91610416565b6040805180820190915260018152603160f81b602082015286908190868289600361005a8382610537565b5060046100678282610537565b505050805f036100915760405163392e1e2760e01b81525f60048201526024015b60405180910390fd5b60805261009f826006610244565b610140526100ae816007610244565b61016052815160208084019190912061010052815190820120610120524660c05261013c6101005161012051604080517f8b73c3c69bb8fe3d512ecc4cf759cc79239f7b179b0ffacaa9a75d522b39400f60208201529081019290925260608201524660808201523060a08201525f9060c00160405160208183030381529060405280519060200120905090565b60a05250503060e0525060017f9b779b17422d0df92223018b32b4d1fa46e071723d6817e2486d003becc55f00556001600160a01b0383166101915760405163d92e233d60e01b815260040160405180910390fd5b6001600160a01b0382166101b85760405163d92e233d60e01b815260040160405180910390fd5b600d80546001600160a01b0319166001600160a01b038416179055600e8190556101e25f84610276565b5061020d7f9f2df0fed2c77648de5860a4cc508cd0818c85b8b8a1ab4ceeef8d981c8956a684610276565b506102387f65d7a28e3265b37a6474929f336521b332c1681b933f6cb9f3376673440d862a84610276565b50505050505050610649565b5f60208351101561025f5761025883610321565b9050610270565b8161026a8482610537565b5060ff90505b92915050565b5f828152600c602090815260408083206001600160a01b038516845290915281205460ff1661031a575f838152600c602090815260408083206001600160a01b03861684529091529020805460ff191660011790556102d23390565b6001600160a01b0316826001600160a01b0316847f2f8788117e7eff1d82e926ec794901d17c78024a50270940304540a733656f0d60405160405180910390a4506001610270565b505f610270565b5f5f829050601f8151111561034b578260405163305a27a960e01b815260040161008891906105f1565b805161035682610626565b179392505050565b634e487b7160e01b5f52604160045260245ffd5b5f82601f830112610381575f5ffd5b81516001600160401b0381111561039a5761039a61035e565b604051601f8201601f19908116603f011681016001600160401b03811182821017156103c8576103c861035e565b6040528181528382016020018510156103df575f5ffd5b8160208501602083015e5f918101602001919091529392505050565b80516001600160a01b0381168114610411575f5ffd5b919050565b5f5f5f5f5f5f60c0878903121561042b575f5ffd5b86516001600160401b03811115610440575f5ffd5b61044c89828a01610372565b602089015190975090506001600160401b03811115610469575f5ffd5b61047589828a01610372565b6040890151909650945061048d9050606088016103fb565b925061049b608088016103fb565b91505f60a08801519050809150509295509295509295565b600181811c908216806104c757607f821691505b6020821081036104e557634e487b7160e01b5f52602260045260245ffd5b50919050565b601f82111561053257805f5260205f20601f840160051c810160208510156105105750805b601f840160051c820191505b8181101561052f575f815560010161051c565b50505b505050565b81516001600160401b038111156105505761055061035e565b6105648161055e84546104b3565b846104eb565b6020601f821160018114610596575f831561057f5750848201515b5f19600385901b1c1916600184901b17845561052f565b5f84815260208120601f198516915b828110156105c557878501518255602094850194600190920191016105a5565b50848210156105e257868401515f19600387901b60f8161c191681555b50505050600190811b01905550565b602081525f82518060208401528060208501604085015e5f604082850101526040601f19601f83011684010191505092915050565b805160208083015191908110156104e5575f1960209190910360031b1b16919050565b60805160a05160c05160e0516101005161012051610140516101605161250f6106a45f395f6111d501525f6111a801525f610e2201525f610dfa01525f610d5501525f610d7f01525f610da901525f610659015261250f5ff3fe608060405234801561000f575f5ffd5b50600436106101e1575f3560e01c806301ffc9a7146101e557806306fdde031461020d578063095ea7b31461022257806318160ddd1461023557806323b872dd14610247578063248a9ca31461025a5780632f2ff15d1461026d578063313ce56714610282578063355274ea146102915780633644e5151461029957806336568abe146102a15780633a46b1a8146102b45780633f4ba83a146102c757806340c10f19146102cf57806342966c68146102e257806344de240a146102f55780634bf5d7e9146102fe578063587cde1e146103285780635c19a95c146103485780635c975abb1461035b5780636fcfff451461036657806370a082311461038e5780637ecebe00146103a15780638456cb59146103b457806384b0196e146103bc5780638e539e8c146103d757806391d14854146103ea57806391ddadf4146103fd57806395d89b41146104135780639ab24eb01461041b578063a217fddf1461042e578063a576b5da14610435578063a9059cbb14610448578063c3cda5201461045b578063d505accf1461046e578063d539139314610481578063d547741f14610495578063dd62ed3e146104a8578063e63ab1e9146104bb578063f1127ed8146104cf578063ff7bce231461050e575b5f5ffd5b6101f86101f3366004611fe2565b610521565b60405190151581526020015b60405180910390f35b610215610557565b6040516102049190612037565b6101f8610230366004612064565b6105e7565b6002545b604051908152602001610204565b6101f861025536600461208c565b6105fe565b6102396102683660046120c6565b610621565b61028061027b3660046120dd565b610635565b005b60405160128152602001610204565b610239610657565b61023961067b565b6102806102af3660046120dd565b610689565b6102396102c2366004612064565b6106c1565b6102806106fb565b6102806102dd366004612064565b61071d565b6102806102f03660046120c6565b6107b8565b610239600e5481565b60408051808201909152600e81526d06d6f64653d74696d657374616d760941b6020820152610215565b61033b610336366004612107565b610807565b6040516102049190612120565b610280610356366004612107565b610824565b60055460ff166101f8565b610379610374366004612107565b610833565b60405163ffffffff9091168152602001610204565b61023961039c366004612107565b61083d565b6102396103af366004612107565b610857565b610280610861565b6103c4610880565b6040516102049796959493929190612134565b6102396103e53660046120c6565b6108c2565b6101f86103f83660046120dd565b6108e6565b60405165ffffffffffff42168152602001610204565b610215610910565b610239610429366004612107565b61091f565b6102395f81565b610280610443366004612107565b61093f565b6101f8610456366004612064565b6109c2565b6102806104693660046121da565b6109cf565b61028061047c36600461222e565b610a90565b6102395f51602061249a5f395f51905f5281565b6102806104a33660046120dd565b610b9a565b6102396104b6366004612294565b610bb6565b6102395f51602061247a5f395f51905f5281565b6104e26104dd3660046122bc565b610be0565b60408051825165ffffffffffff1681526020928301516001600160d01b03169281019290925201610204565b600d5461033b906001600160a01b031681565b5f6001600160e01b03198216637965db0b60e01b148061055157506301ffc9a760e01b6001600160e01b03198316145b92915050565b606060038054610566906122f9565b80601f0160208091040260200160405190810160405280929190818152602001828054610592906122f9565b80156105dd5780601f106105b4576101008083540402835291602001916105dd565b820191905f5260205f20905b8154815290600101906020018083116105c057829003601f168201915b5050505050905090565b5f336105f4818585610bf9565b5060019392505050565b5f3361060b858285610c06565b610616858585610c51565b506001949350505050565b5f908152600c602052604090206001015490565b61063e82610621565b61064781610cae565b6106518383610cb8565b50505050565b7f000000000000000000000000000000000000000000000000000000000000000090565b5f610684610d49565b905090565b6001600160a01b03811633146106b25760405163334bd91960e11b815260040160405180910390fd5b6106bc8282610e72565b505050565b5f6106eb6106ce83610edd565b6001600160a01b0385165f908152600a6020526040902090610f21565b6001600160d01b03169392505050565b5f51602061247a5f395f51905f5261071281610cae565b61071a610fd1565b50565b5f51602061249a5f395f51905f5261073481610cae565b61073c61101d565b6001600160a01b0383166107635760405163d92e233d60e01b815260040160405180910390fd5b61076d8383611038565b826001600160a01b03167f3f2c9d57c068687834f0de942a9babb9e5acab57d516d3480a3c16ee165a4273836040516107a891815260200190565b60405180910390a26106bc61106c565b6107c061101d565b6107ca3382611079565b60405181815233907ffd38818f5291bf0bb3a2a48aadc06ba8757865d1dabd804585338aab3009dcb69060200160405180910390a261071a61106c565b6001600160a01b039081165f908152600960205260409020541690565b3361082f81836110ad565b5050565b5f61055182611126565b6001600160a01b03165f9081526020819052604090205490565b5f61055182611147565b5f51602061247a5f395f51905f5261087881610cae565b61071a611164565b5f6060805f5f5f60606108916111a1565b6108996111ce565b604080515f80825260208201909252600f60f81b9b939a50919850469750309650945092509050565b5f6108d76108cf83610edd565b600b90610f21565b6001600160d01b031692915050565b5f918252600c602090815260408084206001600160a01b0393909316845291905290205460ff1690565b606060048054610566906122f9565b6001600160a01b0381165f908152600a602052604081206108d7906111fb565b5f61094981610cae565b6001600160a01b0382166109705760405163d92e233d60e01b815260040160405180910390fd5b600d80546001600160a01b038481166001600160a01b0319831681179093556040519116919082907f14d841f5311a74e193fb09995a04bffb58b29d4a1b991c52875496ff4313ad49905f90a3505050565b5f336105f4818585610c51565b834211156109f857604051632341d78760e11b8152600481018590526024015b60405180910390fd5b604080517fe48329057bfd03d55e49b547132e39cffd9c1820ad7b9d4c5307691425d15adf60208201526001600160a01b0388169181019190915260608101869052608081018590525f90610a7190610a699060a00160405160208183030381529060405280519060200120611232565b85858561125e565b9050610a7d818761128a565b610a8781886110ad565b50505050505050565b83421115610ab45760405163313c898160e11b8152600481018590526024016109ef565b5f7f6e71edae12b1b97f4d1f60370fef10105fa2faae0126114a169c64845d6126c9888888610ae28c6112ba565b6040805160208101969096526001600160a01b0394851690860152929091166060840152608083015260a082015260c0810186905260e0016040516020818303038152906040528051906020012090505f610b3c82611232565b90505f610b4b8287878761125e565b9050896001600160a01b0316816001600160a01b031614610b8357808a6040516325c0072360e11b81526004016109ef929190612331565b610b8e8a8a8a610bf9565b50505050505050505050565b610ba382610621565b610bac81610cae565b6106518383610e72565b6001600160a01b039182165f90815260016020908152604080832093909416825291909152205490565b610be8611fcc565b610bf283836112dc565b9392505050565b6106bc8383836001611305565b5f610c118484610bb6565b90505f198110156106515781811015610c4357828183604051637dc7a0d960e11b81526004016109ef9392919061234b565b61065184848484035f611305565b6001600160a01b038316610c7a575f604051634b637e8f60e11b81526004016109ef9190612120565b6001600160a01b038216610ca3575f60405163ec442f0560e01b81526004016109ef9190612120565b6106bc8383836113d7565b61071a81336114c2565b5f610cc383836108e6565b610d42575f838152600c602090815260408083206001600160a01b03861684529091529020805460ff19166001179055610cfa3390565b6001600160a01b0316826001600160a01b0316847f2f8788117e7eff1d82e926ec794901d17c78024a50270940304540a733656f0d60405160405180910390a4506001610551565b505f610551565b5f306001600160a01b037f000000000000000000000000000000000000000000000000000000000000000016148015610da157507f000000000000000000000000000000000000000000000000000000000000000046145b15610dcb57507f000000000000000000000000000000000000000000000000000000000000000090565b610684604080517f8b73c3c69bb8fe3d512ecc4cf759cc79239f7b179b0ffacaa9a75d522b39400f60208201527f0000000000000000000000000000000000000000000000000000000000000000918101919091527f000000000000000000000000000000000000000000000000000000000000000060608201524660808201523060a08201525f9060c00160405160208183030381529060405280519060200120905090565b5f610e7d83836108e6565b15610d42575f838152600c602090815260408083206001600160a01b0386168085529252808320805460ff1916905551339286917ff6391f5c32d9c69d2a47ea670b442974b53935d1edc7fd64eb21e047a839171b9190a4506001610551565b5f4265ffffffffffff81168310610f1857604051637669fc0f60e11b81526004810184905265ffffffffffff821660248201526044016109ef565b610bf2836114ed565b81545f9081816005811115610f7d575f610f3a8461151e565b610f449085612380565b5f8881526020902090915081015465ffffffffffff9081169087161015610f6d57809150610f7b565b610f78816001612393565b92505b505b5f610f8a87878585611670565b90508015610fc457610fae87610fa1600184612380565b5f91825260209091200190565b54600160301b90046001600160d01b0316610fc6565b5f5b979650505050505050565b610fd96116c6565b6005805460ff191690557f5db9ee0a495bf2e6ff9c91a7834c1ba4fdd244a5e8aa4e537bd38aeae4b073aa335b6040516110139190612120565b60405180910390a1565b6110256116eb565b6002611035611032611711565b90565b55565b6001600160a01b038216611061575f60405163ec442f0560e01b81526004016109ef9190612120565b61082f5f83836113d7565b6001611035611032611711565b6001600160a01b0382166110a2575f604051634b637e8f60e11b81526004016109ef9190612120565b61082f825f836113d7565b5f6110b783610807565b6001600160a01b038481165f8181526009602052604080822080546001600160a01b031916888616908117909155905194955093928516927f3134e8a2e6d97e929a7e54011ea5485d7d196dd5f0ba4d4ef95803e8e3fc257f9190a46106bc818361112186611735565b61173f565b6001600160a01b0381165f908152600a602052604081205461055190611870565b6001600160a01b0381165f90815260086020526040812054610551565b61116c61189b565b6005805460ff191660011790557f62e78cea01bee320cd4e420270b5ea74000d11b0c9f74754ebdbfc544b05a2586110063390565b60606106847f000000000000000000000000000000000000000000000000000000000000000060066118bf565b60606106847f000000000000000000000000000000000000000000000000000000000000000060076118bf565b80545f90801561122a5761121483610fa1600184612380565b54600160301b90046001600160d01b0316610bf2565b5f9392505050565b5f61055161123e610d49565b8360405161190160f01b8152600281019290925260228201526042902090565b5f5f5f5f61126e88888888611968565b92509250925061127e8282611a26565b50909695505050505050565b5f611294836112ba565b90508082146106bc5782816040516301d4b62360e61b81526004016109ef9291906123a6565b6001600160a01b03165f90815260086020526040902080546001810190915590565b6112e4611fcc565b6001600160a01b0383165f908152600a60205260409020610bf29083611ade565b6001600160a01b03841661132e575f60405163e602df0560e01b81526004016109ef9190612120565b6001600160a01b038316611357575f604051634a1406b160e11b81526004016109ef9190612120565b6001600160a01b038085165f908152600160209081526040808320938716835292905220829055801561065157826001600160a01b0316846001600160a01b03167f8c5be1e5ebec7d5bd14f71427d1e84f3dd0314c0f7b2291e5b200ac8c7c3b925846040516113c991815260200190565b60405180910390a350505050565b6001600160a01b038316158015906113f757506001600160a01b03821615155b156114b757600d546001600160a01b0316611425576040516398123e3f60e01b815260040160405180910390fd5b600d546040516346ab89ef60e11b81526001600160a01b0390911690638d5713de906114579086908690600401612331565b602060405180830381865afa158015611472573d5f5f3e3d5ffd5b505050506040513d601f19601f8201168201806040525081019061149691906123bf565b6114b75782826040516379f913bb60e11b81526004016109ef929190612331565b6106bc838383611b40565b6114cc82826108e6565b61082f57808260405163e2517d3f60e01b81526004016109ef9291906123a6565b5f65ffffffffffff82111561151a576030826040516306dfcc6560e41b81526004016109ef9291906123de565b5090565b5f6001821161152b575090565b816001600160801b82106115445760809190911c9060401b5b600160401b821061155a5760409190911c9060201b5b600160201b82106115705760209190911c9060101b5b6201000082106115855760109190911c9060081b5b61010082106115995760089190911c9060041b5b601082106115ac5760049190911c9060021b5b600482106115b85760011b5b600302600190811c908185816115d0576115d06123f1565b048201901c905060018185816115e8576115e86123f1565b048201901c90506001818581611600576116006123f1565b048201901c90506001818581611618576116186123f1565b048201901c90506001818581611630576116306123f1565b048201901c90506001818581611648576116486123f1565b048201901c9050611667818581611661576116616123f1565b04821190565b90039392505050565b5f5b818310156116be575f85815260209020838316600285851804019081015465ffffffffffff868116911611156116aa578092506116b8565b6116b5816001612393565b93505b50611672565b509392505050565b60055460ff166116e957604051638dfc202b60e01b815260040160405180910390fd5b565b6116f3611ba0565b156116e957604051633ee5aeb560e01b815260040160405180910390fd5b7f9b779b17422d0df92223018b32b4d1fa46e071723d6817e2486d003becc55f0090565b5f6105518261083d565b816001600160a01b0316836001600160a01b03161415801561176057505f81115b156106bc576001600160a01b038316156117eb576001600160a01b0383165f908152600a6020526040812081906117a290611bb561179d86611bc0565b611bee565b6001600160d01b031691506001600160d01b03169150846001600160a01b03165f5160206124ba5f395f51905f5283836040516117e0929190612405565b60405180910390a250505b6001600160a01b038216156106bc576001600160a01b0382165f908152600a60205260408120819061182390611c1f61179d86611bc0565b6001600160d01b031691506001600160d01b03169150836001600160a01b03165f5160206124ba5f395f51905f528383604051611861929190612405565b60405180910390a25050505050565b5f63ffffffff82111561151a576020826040516306dfcc6560e41b81526004016109ef9291906123de565b60055460ff16156116e95760405163d93c066560e01b815260040160405180910390fd5b606060ff83146118d9576118d283611c2a565b9050610551565b8180546118e5906122f9565b80601f0160208091040260200160405190810160405280929190818152602001828054611911906122f9565b801561195c5780601f106119335761010080835404028352916020019161195c565b820191905f5260205f20905b81548152906001019060200180831161193f57829003601f168201915b50505050509050610551565b5f80806fa2a8918ca85bafe22016d0b997e4df60600160ff1b0384111561199757505f91506003905082611a1c565b604080515f808252602082018084528a905260ff891692820192909252606081018790526080810186905260019060a0016020604051602081039080840390855afa1580156119e8573d5f5f3e3d5ffd5b5050604051601f1901519150506001600160a01b038116611a1357505f925060019150829050611a1c565b92505f91508190505b9450945094915050565b5f826003811115611a3957611a39612413565b03611a42575050565b6001826003811115611a5657611a56612413565b03611a745760405163f645eedf60e01b815260040160405180910390fd5b6002826003811115611a8857611a88612413565b03611aa95760405163fce698f760e01b8152600481018290526024016109ef565b6003826003811115611abd57611abd612413565b0361082f576040516335e2f38360e21b8152600481018290526024016109ef565b611ae6611fcc565b825f018263ffffffff1681548110611b0057611b00612427565b5f9182526020918290206040805180820190915291015465ffffffffffff81168252600160301b90046001600160d01b0316918101919091529392505050565b611b4b838383611c67565b6001600160a01b038316611b95575f611b6360025490565b90506001600160d01b0380821115611b92578181604051630e58ae9360e11b81526004016109ef929190612405565b50505b6106bc838383611c7a565b5f6002611bae611032611711565b5414919050565b5f610bf2828461243b565b5f6001600160d01b0382111561151a5760d0826040516306dfcc6560e41b81526004016109ef9291906123de565b5f80611c1242611c0a611c00886111fb565b868863ffffffff16565b879190611cd9565b915091505b935093915050565b5f610bf2828461245a565b60605f611c3683611ce6565b6040805160208082528183019092529192505f91906020820181803683375050509182525060208101929092525090565b611c6f61189b565b6106bc838383611d0d565b6001600160a01b038316611c9c57611c99600b611c1f61179d84611bc0565b50505b6001600160a01b038216611cbe57611cbb600b611bb561179d84611bc0565b50505b6106bc611cca84610807565b611cd384610807565b8361173f565b5f80611c12858585611d69565b5f60ff8216601f81111561055157604051632cd44ac360e21b815260040160405180910390fd5b611d18838383611eb9565b6001600160a01b0383166106bc575f611d2f610657565b90505f611d3b60025490565b905081811115611d6257808260405163279e7e1560e21b81526004016109ef929190612405565b5050505050565b82545f9081908015611e5f575f611d8587610fa1600185612380565b805490915065ffffffffffff80821691600160301b90046001600160d01b0316908816821115611dc857604051632520601d60e01b815260040160405180910390fd5b8765ffffffffffff168265ffffffffffff1603611e0157825465ffffffffffff16600160301b6001600160d01b03891602178355611e51565b6040805180820190915265ffffffffffff808a1682526001600160d01b03808a1660208085019182528d54600181018f555f8f81529190912094519151909216600160301b029216919091179101555b9450859350611c1792505050565b50506040805180820190915265ffffffffffff80851682526001600160d01b0380851660208085019182528854600181018a555f8a815291822095519251909316600160301b029190931617920191909155905081611c17565b6001600160a01b038316611ee3578060025f828254611ed89190612393565b90915550611f409050565b6001600160a01b0383165f9081526020819052604090205481811015611f225783818360405163391434e360e21b81526004016109ef9392919061234b565b6001600160a01b0384165f9081526020819052604090209082900390555b6001600160a01b038216611f5c57600280548290039055611f7a565b6001600160a01b0382165f9081526020819052604090208054820190555b816001600160a01b0316836001600160a01b03167fddf252ad1be2c89b69c2b068fc378daa952ba7f163c4a11628f55a4df523b3ef83604051611fbf91815260200190565b60405180910390a3505050565b604080518082019091525f808252602082015290565b5f60208284031215611ff2575f5ffd5b81356001600160e01b031981168114610bf2575f5ffd5b5f81518084528060208401602086015e5f602082860101526020601f19601f83011685010191505092915050565b602081525f610bf26020830184612009565b80356001600160a01b038116811461205f575f5ffd5b919050565b5f5f60408385031215612075575f5ffd5b61207e83612049565b946020939093013593505050565b5f5f5f6060848603121561209e575f5ffd5b6120a784612049565b92506120b560208501612049565b929592945050506040919091013590565b5f602082840312156120d6575f5ffd5b5035919050565b5f5f604083850312156120ee575f5ffd5b823591506120fe60208401612049565b90509250929050565b5f60208284031215612117575f5ffd5b610bf282612049565b6001600160a01b0391909116815260200190565b60ff60f81b8816815260e060208201525f61215260e0830189612009565b82810360408401526121648189612009565b606084018890526001600160a01b038716608085015260a0840186905283810360c0850152845180825260208087019350909101905f5b818110156121b957835183526020938401939092019160010161219b565b50909b9a5050505050505050505050565b803560ff8116811461205f575f5ffd5b5f5f5f5f5f5f60c087890312156121ef575f5ffd5b6121f887612049565b95506020870135945060408701359350612214606088016121ca565b9598949750929560808101359460a0909101359350915050565b5f5f5f5f5f5f5f60e0888a031215612244575f5ffd5b61224d88612049565b965061225b60208901612049565b95506040880135945060608801359350612277608089016121ca565b9699959850939692959460a0840135945060c09093013592915050565b5f5f604083850312156122a5575f5ffd5b6122ae83612049565b91506120fe60208401612049565b5f5f604083850312156122cd575f5ffd5b6122d683612049565b9150602083013563ffffffff811681146122ee575f5ffd5b809150509250929050565b600181811c9082168061230d57607f821691505b60208210810361232b57634e487b7160e01b5f52602260045260245ffd5b50919050565b6001600160a01b0392831681529116602082015260400190565b6001600160a01b039390931683526020830191909152604082015260600190565b634e487b7160e01b5f52601160045260245ffd5b818103818111156105515761055161236c565b808201808211156105515761055161236c565b6001600160a01b03929092168252602082015260400190565b5f602082840312156123cf575f5ffd5b81518015158114610bf2575f5ffd5b60ff929092168252602082015260400190565b634e487b7160e01b5f52601260045260245ffd5b918252602082015260400190565b634e487b7160e01b5f52602160045260245ffd5b634e487b7160e01b5f52603260045260245ffd5b6001600160d01b0382811682821603908111156105515761055161236c565b6001600160d01b0381811683821601908111156105515761055161236c56fe65d7a28e3265b37a6474929f336521b332c1681b933f6cb9f3376673440d862a9f2df0fed2c77648de5860a4cc508cd0818c85b8b8a1ab4ceeef8d981c8956a6dec2bacdd2f05b59de34da9b523dff8be42e5e38e818c82fdb0bae774387a724a2646970667358221220a14dd505fcbb32fcae4d71c65025f80d6894f69aed802bdf12cf2ae25114524164736f6c634300081c0033","linkReferences":{}},"methodIdentifiers":{"CLOCK_MODE()":"4bf5d7e9","DEFAULT_ADMIN_ROLE()":"a217fddf","DOMAIN_SEPARATOR()":"3644e515","MINTER_ROLE()":"d5391393","PAUSER_ROLE()":"e63ab1e9","allowance(address,address)":"dd62ed3e","approve(address,uint256)":"095ea7b3","assetId()":"44de240a","balanceOf(address)":"70a08231","burn(uint256)":"42966c68","cap()":"355274ea","checkpoints(address,uint32)":"f1127ed8","clock()":"91ddadf4","complianceManager()":"ff7bce23","decimals()":"313ce567","delegate(address)":"5c19a95c","delegateBySig(address,uint256,uint256,uint8,bytes32,bytes32)":"c3cda520","delegates(address)":"587cde1e","eip712Domain()":"84b0196e","getPastTotalSupply(uint256)":"8e539e8c","getPastVotes(address,uint256)":"3a46b1a8","getRoleAdmin(bytes32)":"248a9ca3","getVotes(address)":"9ab24eb0","grantRole(bytes32,address)":"2f2ff15d","hasRole(bytes32,address)":"91d14854","mint(address,uint256)":"40c10f19","name()":"06fdde03","nonces(address)":"7ecebe00","numCheckpoints(address)":"6fcfff45","pause()":"8456cb59","paused()":"5c975abb","permit(address,address,uint256,uint256,uint8,bytes32,bytes32)":"d505accf","renounceRole(bytes32,address)":"36568abe","revokeRole(bytes32,address)":"d547741f","setComplianceManager(address)":"a576b5da","supportsInterface(bytes4)":"01ffc9a7","symbol()":"95d89b41","totalSupply()":"18160ddd","transfer(address,uint256)":"a9059cbb","transferFrom(address,address,uint256)":"23b872dd","unpause()":"3f4ba83a"},"id":75}