{"abi":[{"type":"constructor","inputs":[],"stateMutability":"nonpayable"},{"type":"function","name":"COMPLIANCE_ROLE","inputs":[],"outputs":[{"name":"","type":"bytes32","internalType":"bytes32"}],"stateMutability":"view"},{"type":"function","name":"DEFAULT_ADMIN_ROLE","inputs":[],"outputs":[{"name":"","type":"bytes32","internalType":"bytes32"}],"stateMutability":"view"},{"type":"function","name":"UPGRADE_INTERFACE_VERSION","inputs":[],"outputs":[{"name":"","type":"string","internalType":"string"}],"stateMutability":"view"},{"type":"function","name":"blacklist","inputs":[{"name":"wallet","type":"address","internalType":"address"}],"outputs":[],"stateMutability":"nonpayable"},{"type":"function","name":"getRoleAdmin","inputs":[{"name":"role","type":"bytes32","internalType":"bytes32"}],"outputs":[{"name":"","type":"bytes32","internalType":"bytes32"}],"stateMutability":"view"},{"type":"function","name":"grantRole","inputs":[{"name":"role","type":"bytes32","internalType":"bytes32"},{"name":"account","type":"address","internalType":"address"}],"outputs":[],"stateMutability":"nonpayable"},{"type":"function","name":"hasRole","inputs":[{"name":"role","type":"bytes32","internalType":"bytes32"},{"name":"account","type":"address","internalType":"address"}],"outputs":[{"name":"","type":"bool","internalType":"bool"}],"stateMutability":"view"},{"type":"function","name":"initialize","inputs":[{"name":"admin","type":"address","internalType":"address"},{"name":"verifier","type":"address","internalType":"address"}],"outputs":[],"stateMutability":"nonpayable"},{"type":"function","name":"isApproved","inputs":[{"name":"wallet","type":"address","internalType":"address"}],"outputs":[{"name":"","type":"bool","internalType":"bool"}],"stateMutability":"view"},{"type":"function","name":"isBlacklisted","inputs":[{"name":"wallet","type":"address","internalType":"address"}],"outputs":[{"name":"","type":"bool","internalType":"bool"}],"stateMutability":"view"},{"type":"function","name":"isTransferCompliant","inputs":[{"name":"from","type":"address","internalType":"address"},{"name":"to","type":"address","internalType":"address"}],"outputs":[{"name":"","type":"bool","internalType":"bool"}],"stateMutability":"view"},{"type":"function","name":"manualApprove","inputs":[{"name":"wallet","type":"address","internalType":"address"}],"outputs":[],"stateMutability":"nonpayable"},{"type":"function","name":"proxiableUUID","inputs":[],"outputs":[{"name":"","type":"bytes32","internalType":"bytes32"}],"stateMutability":"view"},{"type":"function","name":"removeBlacklist","inputs":[{"name":"wallet","type":"address","internalType":"address"}],"outputs":[],"stateMutability":"nonpayable"},{"type":"function","name":"renounceRole","inputs":[{"name":"role","type":"bytes32","internalType":"bytes32"},{"name":"callerConfirmation","type":"address","internalType":"address"}],"outputs":[],"stateMutability":"nonpayable"},{"type":"function","name":"revokeApproval","inputs":[{"name":"wallet","type":"address","internalType":"address"}],"outputs":[],"stateMutability":"nonpayable"},{"type":"function","name":"revokeRole","inputs":[{"name":"role","type":"bytes32","internalType":"bytes32"},{"name":"account","type":"address","internalType":"address"}],"outputs":[],"stateMutability":"nonpayable"},{"type":"function","name":"setZKVerifier","inputs":[{"name":"newVerifier","type":"address","internalType":"address"}],"outputs":[],"stateMutability":"nonpayable"},{"type":"function","name":"supportsInterface","inputs":[{"name":"interfaceId","type":"bytes4","internalType":"bytes4"}],"outputs":[{"name":"","type":"bool","internalType":"bool"}],"stateMutability":"view"},{"type":"function","name":"totalApproved","inputs":[],"outputs":[{"name":"","type":"uint256","internalType":"uint256"}],"stateMutability":"view"},{"type":"function","name":"totalBlacklisted","inputs":[],"outputs":[{"name":"","type":"uint256","internalType":"uint256"}],"stateMutability":"view"},{"type":"function","name":"upgradeToAndCall","inputs":[{"name":"newImplementation","type":"address","internalType":"address"},{"name":"data","type":"bytes","internalType":"bytes"}],"outputs":[],"stateMutability":"payable"},{"type":"function","name":"usedNullifiers","inputs":[{"name":"","type":"bytes32","internalType":"bytes32"}],"outputs":[{"name":"","type":"bool","internalType":"bool"}],"stateMutability":"view"},{"type":"function","name":"verifyAndApprove","inputs":[{"name":"proof","type":"bytes","internalType":"bytes"},{"name":"publicInputs","type":"bytes32[]","internalType":"bytes32[]"}],"outputs":[],"stateMutability":"nonpayable"},{"type":"function","name":"zkVerifier","inputs":[],"outputs":[{"name":"","type":"address","internalType":"contract IZKVerifier"}],"stateMutability":"view"},{"type":"event","name":"Initialized","inputs":[{"name":"version","type":"uint64","indexed":false,"internalType":"uint64"}],"anonymous":false},{"type":"event","name":"InvestorApproved","inputs":[{"name":"wallet","type":"address","indexed":true,"internalType":"address"},{"name":"nullifier","type":"bytes32","indexed":true,"internalType":"bytes32"}],"anonymous":false},{"type":"event","name":"InvestorBlacklisted","inputs":[{"name":"wallet","type":"address","indexed":true,"internalType":"address"},{"name":"by","type":"address","indexed":true,"internalType":"address"}],"anonymous":false},{"type":"event","name":"InvestorManuallyApproved","inputs":[{"name":"wallet","type":"address","indexed":true,"internalType":"address"},{"name":"by","type":"address","indexed":true,"internalType":"address"}],"anonymous":false},{"type":"event","name":"InvestorRevoked","inputs":[{"name":"wallet","type":"address","indexed":true,"internalType":"address"},{"name":"by","type":"address","indexed":true,"internalType":"address"}],"anonymous":false},{"type":"event","name":"InvestorUnblacklisted","inputs":[{"name":"wallet","type":"address","indexed":true,"internalType":"address"},{"name":"by","type":"address","indexed":true,"internalType":"address"}],"anonymous":false},{"type":"event","name":"RoleAdminChanged","inputs":[{"name":"role","type":"bytes32","indexed":true,"internalType":"bytes32"},{"name":"previousAdminRole","type":"bytes32","indexed":true,"internalType":"bytes32"},{"name":"newAdminRole","type":"bytes32","indexed":true,"internalType":"bytes32"}],"anonymous":false},{"type":"event","name":"RoleGranted","inputs":[{"name":"role","type":"bytes32","indexed":true,"internalType":"bytes32"},{"name":"account","type":"address","indexed":true,"internalType":"address"},{"name":"sender","type":"address","indexed":true,"internalType":"address"}],"anonymous":false},{"type":"event","name":"RoleRevoked","inputs":[{"name":"role","type":"bytes32","indexed":true,"internalType":"bytes32"},{"name":"account","type":"address","indexed":true,"internalType":"address"},{"name":"sender","type":"address","indexed":true,"internalType":"address"}],"anonymous":false},{"type":"event","name":"Upgraded","inputs":[{"name":"implementation","type":"address","indexed":true,"internalType":"address"}],"anonymous":false},{"type":"event","name":"ZKVerifierUpdated","inputs":[{"name":"oldVerifier","type":"address","indexed":true,"internalType":"address"},{"name":"newVerifier","type":"address","indexed":true,"internalType":"address"}],"anonymous":false},{"type":"error","name":"AccessControlBadConfirmation","inputs":[]},{"type":"error","name":"AccessControlUnauthorizedAccount","inputs":[{"name":"account","type":"address","internalType":"address"},{"name":"neededRole","type":"bytes32","internalType":"bytes32"}]},{"type":"error","name":"AddressEmptyCode","inputs":[{"name":"target","type":"address","internalType":"address"}]},{"type":"error","name":"AlreadyApproved","inputs":[{"name":"wallet","type":"address","internalType":"address"}]},{"type":"error","name":"AlreadyBlacklisted","inputs":[{"name":"wallet","type":"address","internalType":"address"}]},{"type":"error","name":"ERC1967InvalidImplementation","inputs":[{"name":"implementation","type":"address","internalType":"address"}]},{"type":"error","name":"ERC1967NonPayable","inputs":[]},{"type":"error","name":"FailedCall","inputs":[]},{"type":"error","name":"InvalidInitialization","inputs":[]},{"type":"error","name":"NotApproved","inputs":[{"name":"wallet","type":"address","internalType":"address"}]},{"type":"error","name":"NotBlacklisted","inputs":[{"name":"wallet","type":"address","internalType":"address"}]},{"type":"error","name":"NotInitializing","inputs":[]},{"type":"error","name":"NullifierAlreadyUsed","inputs":[{"name":"nullifier","type":"bytes32","internalType":"bytes32"}]},{"type":"error","name":"ReentrancyGuardReentrantCall","inputs":[]},{"type":"error","name":"UUPSUnauthorizedCallContext","inputs":[]},{"type":"error","name":"UUPSUnsupportedProxiableUUID","inputs":[{"name":"slot","type":"bytes32","internalType":"bytes32"}]},{"type":"error","name":"ZKProofInvalid","inputs":[]},{"type":"error","name":"ZeroAddress","inputs":[]}],"bytecode":{"object":"0x60a060405230608052348015610013575f5ffd5b5060017f9b779b17422d0df92223018b32b4d1fa46e071723d6817e2486d003becc55f0055610040610045565b6100f7565b7ff0c57e16840df040f15088dc2f81fe391c3923bec73e23a9662efc9c229c6a00805468010000000000000000900460ff16156100955760405163f92ee8a960e01b815260040160405180910390fd5b80546001600160401b03908116146100f45780546001600160401b0319166001600160401b0390811782556040519081527fc7f505b2f371ae2175ee4913f4499e1f2633a7b5936321eed1cdaeb6115181d29060200160405180910390a15b50565b60805161172c61011d5f395f8181610f1901528181610f42015261107a015261172c5ff3fe608060405260043610610125575f3560e01c806301ffc9a714610129578063062d3bd71461015d578063206137aa1461018b578063248a9ca3146101b95780632f2ff15d146101d857806336568abe146101f95780633fb2fb3314610218578063484685b014610237578063485cc955146102565780634f1ef2861461027557806352d1902d14610288578063673448dd1461029c5780638a93973b146102d35780638d5713de146102e857806391d1485414610307578063a217fddf14610326578063ad3cb1cc14610339578063c509034614610376578063cba09cc814610395578063cc7b7245146103aa578063d547741f146103c9578063d6df096d146103e8578063eb91e65114610413578063f9f92be414610432578063fe575a8714610451575b5f5ffd5b348015610134575f5ffd5b50610148610143366004611323565b610488565b60405190151581526020015b60405180910390f35b348015610168575f5ffd5b5061017d5f5160206116d75f395f51905f5281565b604051908152602001610154565b348015610196575f5ffd5b506101486101a536600461134a565b60036020525f908152604090205460ff1681565b3480156101c4575f5ffd5b5061017d6101d336600461134a565b6104be565b3480156101e3575f5ffd5b506101f76101f236600461137c565b6104dc565b005b348015610204575f5ffd5b506101f761021336600461137c565b6104fe565b348015610223575f5ffd5b506101f76102323660046113a6565b610536565b348015610242575f5ffd5b506101f761025136600461146a565b61071a565b348015610261575f5ffd5b506101f7610270366004611483565b6107d6565b6101f76102833660046114bf565b610944565b348015610293575f5ffd5b5061017d610963565b3480156102a7575f5ffd5b506101486102b636600461146a565b6001600160a01b03165f9081526001602052604090205460ff1690565b3480156102de575f5ffd5b5061017d60055481565b3480156102f3575f5ffd5b50610148610302366004611483565b61097e565b348015610312575f5ffd5b5061014861032136600461137c565b610a0b565b348015610331575f5ffd5b5061017d5f81565b348015610344575f5ffd5b50610369604051806040016040528060058152602001640352e302e360dc1b81525081565b6040516101549190611580565b348015610381575f5ffd5b506101f761039036600461146a565b610a3f565b3480156103a0575f5ffd5b5061017d60045481565b3480156103b5575f5ffd5b506101f76103c436600461146a565b610ac0565b3480156103d4575f5ffd5b506101f76103e336600461137c565b610ba9565b3480156103f3575f5ffd5b505f54610406906001600160a01b031681565b60405161015491906115b5565b34801561041e575f5ffd5b506101f761042d36600461146a565b610bc5565b34801561043d575f5ffd5b506101f761044c36600461146a565b610c81565b34801561045c575f5ffd5b5061014861046b36600461146a565b6001600160a01b03165f9081526002602052604090205460ff1690565b5f6001600160e01b03198216637965db0b60e01b14806104b857506301ffc9a760e01b6001600160e01b03198316145b92915050565b5f5f6104c8610d68565b5f9384526020525050604090206001015490565b6104e5826104be565b6104ee81610d8c565b6104f88383610d99565b50505050565b6001600160a01b03811633146105275760405163334bd91960e11b815260040160405180910390fd5b6105318282610e3e565b505050565b61053e610eb4565b600181101561056057604051636c17a0dd60e11b815260040160405180910390fd5b5f8054604051633a94343960e21b81526001600160a01b039091169063ea50d0e4906105969088908890889088906004016115c9565b602060405180830381865afa1580156105b1573d5f5f3e3d5ffd5b505050506040513d601f19601f820116820180604052508101906105d5919061162b565b9050806105f557604051636c17a0dd60e11b815260040160405180910390fd5b5f83835f8181106106085761060861164a565b905060200201353360405160200161063792919091825260601b6001600160601b031916602082015260340190565b60408051601f1981840301815291815281516020928301205f818152600390935291205490915060ff161561068757604051632920f74160e21b8152600481018290526024015b60405180910390fd5b5f818152600360209081526040808320805460ff1916600190811790915533845290915290205460ff166106e457335f9081526001602081905260408220805460ff1916909117905560048054916106de83611672565b91905055505b604051819033907f27d5017669620c9c965ea1ff288010f51bac6e82c61e0b58f4bd05c50a4aa6ed905f90a350506104f8610ecf565b5f5160206116d75f395f51905f5261073181610d8c565b6001600160a01b0382165f9081526001602052604090205460ff1661076b57816040516301952d1b60e31b815260040161067e91906115b5565b6001600160a01b0382165f908152600160205260408120805460ff1916905560048054916107988361168a565b909155505060405133906001600160a01b038416907fa67a80da51415eab77230b102b9e53e0f527ccca1909af1846646f1399eb6f7a905f90a35050565b5f6107df610edc565b805490915060ff600160401b82041615906001600160401b03165f811580156108055750825b90505f826001600160401b031660011480156108205750303b155b90508115801561082e575080155b1561084c5760405163f92ee8a960e01b815260040160405180910390fd5b84546001600160401b0319166001178555831561087557845460ff60401b1916600160401b1785555b6001600160a01b038716158061089257506001600160a01b038616155b156108b05760405163d92e233d60e01b815260040160405180910390fd5b6108b8610f04565b5f80546001600160a01b0319166001600160a01b0388161781556108dc9088610d99565b506108f45f5160206116d75f395f51905f5288610d99565b50831561093b57845460ff60401b19168555604051600181527fc7f505b2f371ae2175ee4913f4499e1f2633a7b5936321eed1cdaeb6115181d29060200160405180910390a15b50505050505050565b61094c610f0e565b61095582610fb2565b61095f8282610fbc565b5050565b5f61096c61106f565b505f5160206116b75f395f51905f5290565b6001600160a01b0382165f9081526001602052604081205460ff1680156109bc57506001600160a01b0382165f9081526001602052604090205460ff165b80156109e057506001600160a01b0383165f9081526002602052604090205460ff16155b8015610a0457506001600160a01b0382165f9081526002602052604090205460ff16155b9392505050565b5f5f610a15610d68565b5f948552602090815260408086206001600160a01b03959095168652939052505090205460ff1690565b5f610a4981610d8c565b6001600160a01b038216610a705760405163d92e233d60e01b815260040160405180910390fd5b5f80546001600160a01b038481166001600160a01b0319831681178455604051919092169283917fa7912e737f35ce8dfa9cf451acb66d4dd1f672979c93fb522a89eb96213249269190a3505050565b5f5160206116d75f395f51905f52610ad781610d8c565b6001600160a01b038216610afe5760405163d92e233d60e01b815260040160405180910390fd5b6001600160a01b0382165f9081526001602052604090205460ff1615610b395781604051633040d2cb60e21b815260040161067e91906115b5565b6001600160a01b0382165f9081526001602081905260408220805460ff191690911790556004805491610b6b83611672565b909155505060405133906001600160a01b038416907f2a5987a6a6b0c7a0cb18ff21e4c581cff52d477b91c3809ac83a6958203c00ce905f90a35050565b610bb2826104be565b610bbb81610d8c565b6104f88383610e3e565b5f5160206116d75f395f51905f52610bdc81610d8c565b6001600160a01b0382165f9081526002602052604090205460ff16610c165781604051637be8837960e01b815260040161067e91906115b5565b6001600160a01b0382165f908152600260205260408120805460ff191690556005805491610c438361168a565b909155505060405133906001600160a01b038416907f4e15db89b1b1f66ae7feb1c61311af4a1fdaf459b19106f595830771010509fa905f90a35050565b5f5160206116d75f395f51905f52610c9881610d8c565b6001600160a01b038216610cbf5760405163d92e233d60e01b815260040160405180910390fd5b6001600160a01b0382165f9081526002602052604090205460ff1615610cfa578160405163163581b360e31b815260040161067e91906115b5565b6001600160a01b0382165f908152600260205260408120805460ff191660011790556005805491610d2a83611672565b909155505060405133906001600160a01b038416907fc8042da525d07e0b83ffa9177474ccb7e5fe1715bf4644c357f5f461e96149ad905f90a35050565b7f02dd7bc7dec4dceedda775e58dd541e08a116c6c53815c0bd028192f7b62680090565b610d9681336110b8565b50565b5f5f610da3610d68565b9050610daf8484610a0b565b610e2e575f848152602082815260408083206001600160a01b03871684529091529020805460ff19166001179055610de43390565b6001600160a01b0316836001600160a01b0316857f2f8788117e7eff1d82e926ec794901d17c78024a50270940304540a733656f0d60405160405180910390a460019150506104b8565b5f9150506104b8565b5092915050565b5f5f610e48610d68565b9050610e548484610a0b565b15610e2e575f848152602082815260408083206001600160a01b0387168085529252808320805460ff1916905551339287917ff6391f5c32d9c69d2a47ea670b442974b53935d1edc7fd64eb21e047a839171b9190a460019150506104b8565b610ebc6110f1565b6002610ecc610ec9611117565b90565b55565b6001610ecc610ec9611117565b5f807ff0c57e16840df040f15088dc2f81fe391c3923bec73e23a9662efc9c229c6a006104b8565b610f0c61113b565b565b306001600160a01b037f0000000000000000000000000000000000000000000000000000000000000000161480610f9457507f00000000000000000000000000000000000000000000000000000000000000006001600160a01b0316610f885f5160206116b75f395f51905f52546001600160a01b031690565b6001600160a01b031614155b15610f0c5760405163703e46dd60e11b815260040160405180910390fd5b5f61095f81610d8c565b816001600160a01b03166352d1902d6040518163ffffffff1660e01b8152600401602060405180830381865afa925050508015611016575060408051601f3d908101601f191682019092526110139181019061169f565b60015b6110355781604051634c9c8ce360e01b815260040161067e91906115b5565b5f5160206116b75f395f51905f52811461106557604051632a87526960e21b81526004810182905260240161067e565b6105318383611160565b306001600160a01b037f00000000000000000000000000000000000000000000000000000000000000001614610f0c5760405163703e46dd60e11b815260040160405180910390fd5b6110c28282610a0b565b61095f5760405163e2517d3f60e01b81526001600160a01b03821660048201526024810183905260440161067e565b6110f96111b5565b15610f0c57604051633ee5aeb560e01b815260040160405180910390fd5b7f9b779b17422d0df92223018b32b4d1fa46e071723d6817e2486d003becc55f0090565b6111436111ca565b610f0c57604051631afcd79f60e31b815260040160405180910390fd5b611169826111e3565b6040516001600160a01b038316907fbc7cd75a20ee27fd9adebab32041f755214dbc6bffa90cc0225b39da2e5c2d3b905f90a28051156111ad57610531828261123d565b61095f6112cd565b5f60026111c3610ec9611117565b5414919050565b5f6111d3610edc565b54600160401b900460ff16919050565b806001600160a01b03163b5f0361120f5780604051634c9c8ce360e01b815260040161067e91906115b5565b5f5160206116b75f395f51905f5280546001600160a01b0319166001600160a01b0392909216919091179055565b60605f61124a84846112ec565b905080801561126b57505f3d118061126b57505f846001600160a01b03163b115b15611280576112786112ff565b9150506104b8565b80156112a15783604051639996b31560e01b815260040161067e91906115b5565b3d156112b4576112af611318565b610e37565b60405163d6bda27560e01b815260040160405180910390fd5b3415610f0c5760405163b398979f60e01b815260040160405180910390fd5b5f5f5f835160208501865af49392505050565b6040513d81523d5f602083013e3d602001810160405290565b6040513d5f823e3d81fd5b5f60208284031215611333575f5ffd5b81356001600160e01b031981168114610a04575f5ffd5b5f6020828403121561135a575f5ffd5b5035919050565b80356001600160a01b0381168114611377575f5ffd5b919050565b5f5f6040838503121561138d575f5ffd5b8235915061139d60208401611361565b90509250929050565b5f5f5f5f604085870312156113b9575f5ffd5b84356001600160401b038111156113ce575f5ffd5b8501601f810187136113de575f5ffd5b80356001600160401b038111156113f3575f5ffd5b876020828401011115611404575f5ffd5b6020918201955093508501356001600160401b03811115611423575f5ffd5b8501601f81018713611433575f5ffd5b80356001600160401b03811115611448575f5ffd5b8760208260051b840101111561145c575f5ffd5b949793965060200194505050565b5f6020828403121561147a575f5ffd5b610a0482611361565b5f5f60408385031215611494575f5ffd5b61149d83611361565b915061139d60208401611361565b634e487b7160e01b5f52604160045260245ffd5b5f5f604083850312156114d0575f5ffd5b6114d983611361565b915060208301356001600160401b038111156114f3575f5ffd5b8301601f81018513611503575f5ffd5b80356001600160401b0381111561151c5761151c6114ab565b604051601f8201601f19908116603f011681016001600160401b038111828210171561154a5761154a6114ab565b604052818152828201602001871015611561575f5ffd5b816020840160208301375f602083830101528093505050509250929050565b602081525f82518060208401528060208501604085015e5f604082850101526040601f19601f83011684010191505092915050565b6001600160a01b0391909116815260200190565b60408152836040820152838560608301375f60608583018101829052601f19601f8701168301838103820160208501529081018490526001600160fb1b03841115611612575f5ffd5b8360051b80866080840137016080019695505050505050565b5f6020828403121561163b575f5ffd5b81518015158114610a04575f5ffd5b634e487b7160e01b5f52603260045260245ffd5b634e487b7160e01b5f52601160045260245ffd5b5f600182016116835761168361165e565b5060010190565b5f816116985761169861165e565b505f190190565b5f602082840312156116af575f5ffd5b505191905056fe360894a13ba1a3210667c828492db98dca3e2076cc3735a920a3ca505d382bbc442a94f1a1fac79af32856af2a64f63648cfa2ef3b98610a5bb7cbec4cee6985a2646970667358221220a21d2ee1e52360df5f53344bf5169c76720b736ea2e2453f6337350e87b4db1864736f6c634300081c0033","linkReferences":{}},"methodIdentifiers":{"COMPLIANCE_ROLE()":"062d3bd7","DEFAULT_ADMIN_ROLE()":"a217fddf","UPGRADE_INTERFACE_VERSION()":"ad3cb1cc","blacklist(address)":"f9f92be4","getRoleAdmin(bytes32)":"248a9ca3","grantRole(bytes32,address)":"2f2ff15d","hasRole(bytes32,address)":"91d14854","initialize(address,address)":"485cc955","isApproved(address)":"673448dd","isBlacklisted(address)":"fe575a87","isTransferCompliant(address,address)":"8d5713de","manualApprove(address)":"cc7b7245","proxiableUUID()":"52d1902d","removeBlacklist(address)":"eb91e651","renounceRole(bytes32,address)":"36568abe","revokeApproval(address)":"484685b0","revokeRole(bytes32,address)":"d547741f","setZKVerifier(address)":"c5090346","supportsInterface(bytes4)":"01ffc9a7","totalApproved()":"cba09cc8","totalBlacklisted()":"8a93973b","upgradeToAndCall(address,bytes)":"4f1ef286","usedNullifiers(bytes32)":"206137aa","verifyAndApprove(bytes,bytes32[])":"3fb2fb33","zkVerifier()":"d6df096d"},"id":76}