{"abi":[{"type":"constructor","inputs":[{"name":"admin","type":"address","internalType":"address"}],"stateMutability":"nonpayable"},{"type":"function","name":"DEFAULT_ADMIN_ROLE","inputs":[],"outputs":[{"name":"","type":"bytes32","internalType":"bytes32"}],"stateMutability":"view"},{"type":"function","name":"claimDividend","inputs":[{"name":"roundId","type":"uint256","internalType":"uint256"}],"outputs":[],"stateMutability":"nonpayable"},{"type":"function","name":"createDividendRound","inputs":[{"name":"tokenAddress","type":"address","internalType":"address"},{"name":"snapshotTimestamp","type":"uint48","internalType":"uint48"}],"outputs":[],"stateMutability":"payable"},{"type":"function","name":"getClaimableAmount","inputs":[{"name":"roundId","type":"uint256","internalType":"uint256"},{"name":"investor","type":"address","internalType":"address"}],"outputs":[{"name":"","type":"uint256","internalType":"uint256"}],"stateMutability":"view"},{"type":"function","name":"getRoleAdmin","inputs":[{"name":"role","type":"bytes32","internalType":"bytes32"}],"outputs":[{"name":"","type":"bytes32","internalType":"bytes32"}],"stateMutability":"view"},{"type":"function","name":"getRound","inputs":[{"name":"roundId","type":"uint256","internalType":"uint256"}],"outputs":[{"name":"","type":"tuple","internalType":"struct DividendDistributor.DividendRound","components":[{"name":"totalAmount","type":"uint256","internalType":"uint256"},{"name":"snapshotTimestamp","type":"uint48","internalType":"uint48"},{"name":"tokenAddress","type":"address","internalType":"address"},{"name":"totalSupplyAtSnapshot","type":"uint256","internalType":"uint256"},{"name":"claimedAmount","type":"uint256","internalType":"uint256"},{"name":"finalized","type":"bool","internalType":"bool"}]}],"stateMutability":"view"},{"type":"function","name":"grantRole","inputs":[{"name":"role","type":"bytes32","internalType":"bytes32"},{"name":"account","type":"address","internalType":"address"}],"outputs":[],"stateMutability":"nonpayable"},{"type":"function","name":"hasClaimed","inputs":[{"name":"","type":"uint256","internalType":"uint256"},{"name":"","type":"address","internalType":"address"}],"outputs":[{"name":"","type":"bool","internalType":"bool"}],"stateMutability":"view"},{"type":"function","name":"hasRole","inputs":[{"name":"role","type":"bytes32","internalType":"bytes32"},{"name":"account","type":"address","internalType":"address"}],"outputs":[{"name":"","type":"bool","internalType":"bool"}],"stateMutability":"view"},{"type":"function","name":"nextRoundId","inputs":[],"outputs":[{"name":"","type":"uint256","internalType":"uint256"}],"stateMutability":"view"},{"type":"function","name":"recoverUnclaimed","inputs":[{"name":"roundId","type":"uint256","internalType":"uint256"},{"name":"to","type":"address","internalType":"address"}],"outputs":[],"stateMutability":"nonpayable"},{"type":"function","name":"renounceRole","inputs":[{"name":"role","type":"bytes32","internalType":"bytes32"},{"name":"callerConfirmation","type":"address","internalType":"address"}],"outputs":[],"stateMutability":"nonpayable"},{"type":"function","name":"revokeRole","inputs":[{"name":"role","type":"bytes32","internalType":"bytes32"},{"name":"account","type":"address","internalType":"address"}],"outputs":[],"stateMutability":"nonpayable"},{"type":"function","name":"rounds","inputs":[{"name":"","type":"uint256","internalType":"uint256"}],"outputs":[{"name":"totalAmount","type":"uint256","internalType":"uint256"},{"name":"snapshotTimestamp","type":"uint48","internalType":"uint48"},{"name":"tokenAddress","type":"address","internalType":"address"},{"name":"totalSupplyAtSnapshot","type":"uint256","internalType":"uint256"},{"name":"claimedAmount","type":"uint256","internalType":"uint256"},{"name":"finalized","type":"bool","internalType":"bool"}],"stateMutability":"view"},{"type":"function","name":"supportsInterface","inputs":[{"name":"interfaceId","type":"bytes4","internalType":"bytes4"}],"outputs":[{"name":"","type":"bool","internalType":"bool"}],"stateMutability":"view"},{"type":"event","name":"DividendClaimed","inputs":[{"name":"roundId","type":"uint256","indexed":true,"internalType":"uint256"},{"name":"investor","type":"address","indexed":true,"internalType":"address"},{"name":"amount","type":"uint256","indexed":false,"internalType":"uint256"}],"anonymous":false},{"type":"event","name":"DividendRoundCreated","inputs":[{"name":"roundId","type":"uint256","indexed":true,"internalType":"uint256"},{"name":"tokenAddress","type":"address","indexed":true,"internalType":"address"},{"name":"totalAmount","type":"uint256","indexed":false,"internalType":"uint256"},{"name":"snapshotTimestamp","type":"uint48","indexed":false,"internalType":"uint48"}],"anonymous":false},{"type":"event","name":"RoleAdminChanged","inputs":[{"name":"role","type":"bytes32","indexed":true,"internalType":"bytes32"},{"name":"previousAdminRole","type":"bytes32","indexed":true,"internalType":"bytes32"},{"name":"newAdminRole","type":"bytes32","indexed":true,"internalType":"bytes32"}],"anonymous":false},{"type":"event","name":"RoleGranted","inputs":[{"name":"role","type":"bytes32","indexed":true,"internalType":"bytes32"},{"name":"account","type":"address","indexed":true,"internalType":"address"},{"name":"sender","type":"address","indexed":true,"internalType":"address"}],"anonymous":false},{"type":"event","name":"RoleRevoked","inputs":[{"name":"role","type":"bytes32","indexed":true,"internalType":"bytes32"},{"name":"account","type":"address","indexed":true,"internalType":"address"},{"name":"sender","type":"address","indexed":true,"internalType":"address"}],"anonymous":false},{"type":"event","name":"UnclaimedDividendsRecovered","inputs":[{"name":"roundId","type":"uint256","indexed":true,"internalType":"uint256"},{"name":"amount","type":"uint256","indexed":false,"internalType":"uint256"},{"name":"to","type":"address","indexed":true,"internalType":"address"}],"anonymous":false},{"type":"error","name":"AccessControlBadConfirmation","inputs":[]},{"type":"error","name":"AccessControlUnauthorizedAccount","inputs":[{"name":"account","type":"address","internalType":"address"},{"name":"neededRole","type":"bytes32","internalType":"bytes32"}]},{"type":"error","name":"AlreadyClaimed","inputs":[{"name":"roundId","type":"uint256","internalType":"uint256"},{"name":"investor","type":"address","internalType":"address"}]},{"type":"error","name":"InvalidSnapshotTimestamp","inputs":[]},{"type":"error","name":"NothingToClaim","inputs":[{"name":"roundId","type":"uint256","internalType":"uint256"},{"name":"investor","type":"address","internalType":"address"}]},{"type":"error","name":"ReentrancyGuardReentrantCall","inputs":[]},{"type":"error","name":"RoundNotFinalized","inputs":[{"name":"roundId","type":"uint256","internalType":"uint256"}]},{"type":"error","name":"RoundNotFound","inputs":[{"name":"roundId","type":"uint256","internalType":"uint256"}]},{"type":"error","name":"SnapshotTooRecent","inputs":[]},{"type":"error","name":"TransferFailed","inputs":[]},{"type":"error","name":"ZeroAddress","inputs":[]},{"type":"error","name":"ZeroAmount","inputs":[]}],"bytecode":{"object":"0x608060405234801561000f575f5ffd5b5060405161111f38038061111f83398101604081905261002e91610137565b60017f9b779b17422d0df92223018b32b4d1fa46e071723d6817e2486d003becc55f00556001600160a01b0381166100795760405163d92e233d60e01b815260040160405180910390fd5b6100835f8261008e565b505060018055610164565b5f828152602081815260408083206001600160a01b038516845290915281205460ff1661012e575f838152602081815260408083206001600160a01b03861684529091529020805460ff191660011790556100e63390565b6001600160a01b0316826001600160a01b0316847f2f8788117e7eff1d82e926ec794901d17c78024a50270940304540a733656f0d60405160405180910390a4506001610131565b505f5b92915050565b5f60208284031215610147575f5ffd5b81516001600160a01b038116811461015d575f5ffd5b9392505050565b610fae806101715f395ff3fe6080604052600436106100b7575f3560e01c806301ffc9a7146100bb57806318d0f4cb146100ef578063248a9ca3146101045780632f2ff15d1461013157806336568abe146101505780634002eda61461016f57806378c5195e14610184578063873f6f9e146101a35780638c65c81f146101dc5780638f1327c01461028457806391d148541461039a5780639abd3572146103b9578063a217fddf146103d8578063d547741f146103eb578063e8aa69bb1461040a575b5f5ffd5b3480156100c6575f5ffd5b506100da6100d5366004610dd8565b610429565b60405190151581526020015b60405180910390f35b6101026100fd366004610e21565b61045f565b005b34801561010f575f5ffd5b5061012361011e366004610e60565b61067e565b6040519081526020016100e6565b34801561013c575f5ffd5b5061010261014b366004610e77565b610692565b34801561015b575f5ffd5b5061010261016a366004610e77565b6106b4565b34801561017a575f5ffd5b5061012360015481565b34801561018f575f5ffd5b5061012361019e366004610e77565b6106e7565b3480156101ae575f5ffd5b506100da6101bd366004610e77565b600360209081525f928352604080842090915290825290205460ff1681565b3480156101e7575f5ffd5b506102406101f6366004610e60565b600260208190525f918252604090912080546001820154928201546003830154600490930154919365ffffffffffff811693600160301b9091046001600160a01b03169260ff1686565b6040805196875265ffffffffffff90951660208701526001600160a01b039093169385019390935260608401526080830191909152151560a082015260c0016100e6565b34801561028f575f5ffd5b5061034061029e366004610e60565b6040805160c0810182525f80825260208201819052918101829052606081018290526080810182905260a0810191909152505f90815260026020818152604092839020835160c08101855281548152600182015465ffffffffffff811693820193909352600160301b9092046001600160a01b0316938201939093529082015460608201526003820154608082015260049091015460ff16151560a082015290565b6040516100e691908151815260208083015165ffffffffffff16908201526040808301516001600160a01b031690820152606080830151908201526080808301519082015260a09182015115159181019190915260c00190565b3480156103a5575f5ffd5b506100da6103b4366004610e77565b6107f1565b3480156103c4575f5ffd5b506101026103d3366004610e60565b610819565b3480156103e3575f5ffd5b506101235f81565b3480156103f6575f5ffd5b50610102610405366004610e77565b610a90565b348015610415575f5ffd5b50610102610424366004610e77565b610aac565b5f6001600160e01b03198216637965db0b60e01b148061045957506301ffc9a760e01b6001600160e01b03198316145b92915050565b5f61046981610c10565b610471610c1a565b6001600160a01b0383166104985760405163d92e233d60e01b815260040160405180910390fd5b345f036104b857604051631f2a200560e01b815260040160405180910390fd5b428265ffffffffffff16106104e057604051633dbc68f960e21b815260040160405180910390fd5b604051632394e7a360e21b815265ffffffffffff831660048201525f906001600160a01b03851690638e539e8c90602401602060405180830381865afa15801561052c573d5f5f3e3d5ffd5b505050506040513d601f19601f820116820180604052508101906105509190610ea1565b9050805f0361057257604051631f2a200560e01b815260040160405180910390fd5b600180545f918261058283610ecc565b909155506040805160c0810182523480825265ffffffffffff88811660208085018281526001600160a01b038d8116878901818152606089018d81525f60808b01818152600160a08d018181528f84526002808b52938f90209d518e559751908d0180549551909716600160301b026001600160d01b03199095169a16999099179290921790935591519188019190915593516003870155516004909501805495151560ff19909616959095179094558451928352928201929092529293509183917f8a3f2e4e41b49f8432896ec3e5532e9817f98166fe78b7ae5e335120abe909a1910160405180910390a35050610679610c35565b505050565b5f9081526020819052604090206001015490565b61069b8261067e565b6106a481610c10565b6106ae8383610c42565b50505050565b6001600160a01b03811633146106dd5760405163334bd91960e11b815260040160405180910390fd5b6106798282610cd1565b5f82815260026020526040812080548203610705575f915050610459565b5f8481526003602090815260408083206001600160a01b038716845290915290205460ff1615610738575f915050610459565b6001810154604051630748d63560e31b81525f916001600160a01b03600160301b82041691633a46b1a89161077a91889165ffffffffffff1690600401610ee4565b602060405180830381865afa158015610795573d5f5f3e3d5ffd5b505050506040513d601f19601f820116820180604052508101906107b99190610ea1565b9050805f036107cc575f92505050610459565b600282015482546107de908390610f05565b6107e89190610f1c565b95945050505050565b5f918252602082815260408084206001600160a01b0393909316845291905290205460ff1690565b610821610c1a565b5f81815260026020526040812080549091036108585760405163f8ae813760e01b8152600481018390526024015b60405180910390fd5b600481015460ff16610880576040516335f7f2d760e01b81526004810183905260240161084f565b5f82815260036020908152604080832033845290915290205460ff16156108be5781336040516302a4851560e61b815260040161084f929190610f3b565b6001810154604051630748d63560e31b81525f916001600160a01b03600160301b82041691633a46b1a89161090091339165ffffffffffff1690600401610ee4565b602060405180830381865afa15801561091b573d5f5f3e3d5ffd5b505050506040513d601f19601f8201168201806040525081019061093f9190610ea1565b9050805f0361096557823360405163b361b5fb60e01b815260040161084f929190610f3b565b5f826002015482845f015461097a9190610f05565b6109849190610f1c565b9050805f036109aa57833360405163b361b5fb60e01b815260040161084f929190610f3b565b5f8481526003602081815260408084203385529091528220805460ff19166001179055840180548392906109df908490610f52565b90915550506040515f90339083908381818185875af1925050503d805f8114610a23576040519150601f19603f3d011682016040523d82523d5f602084013e610a28565b606091505b5050905080610a4a576040516312171d8360e31b815260040160405180910390fd5b604051828152339086907fa1594d215a577c1905bcb0b5b186a40a0104714277441d4b2ac428c89bf7f4b19060200160405180910390a350505050610a8d610c35565b50565b610a998261067e565b610aa281610c10565b6106ae8383610cd1565b5f610ab681610c10565b610abe610c1a565b6001600160a01b038216610ae55760405163d92e233d60e01b815260040160405180910390fd5b5f8381526002602052604081208054909103610b175760405163f8ae813760e01b81526004810185905260240161084f565b600381015481545f91610b2991610f65565b9050805f03610b4b57604051631f2a200560e01b815260040160405180910390fd5b815460038301556040515f906001600160a01b0386169083908381818185875af1925050503d805f8114610b9a576040519150601f19603f3d011682016040523d82523d5f602084013e610b9f565b606091505b5050905080610bc1576040516312171d8360e31b815260040160405180910390fd5b846001600160a01b0316867f3c6cbb9f2dbe60cb888bfbc2dca81bb491a349e6337dc77bf08646c2731e607e84604051610bfd91815260200190565b60405180910390a3505050610679610c35565b610a8d8133610d3a565b610c22610d77565b6002610c32610c2f610d9f565b90565b55565b6001610c32610c2f610d9f565b5f610c4d83836107f1565b610cca575f838152602081815260408083206001600160a01b03861684529091529020805460ff19166001179055610c823390565b6001600160a01b0316826001600160a01b0316847f2f8788117e7eff1d82e926ec794901d17c78024a50270940304540a733656f0d60405160405180910390a4506001610459565b505f610459565b5f610cdc83836107f1565b15610cca575f838152602081815260408083206001600160a01b0386168085529252808320805460ff1916905551339286917ff6391f5c32d9c69d2a47ea670b442974b53935d1edc7fd64eb21e047a839171b9190a4506001610459565b610d4482826107f1565b610d735760405163e2517d3f60e01b81526001600160a01b03821660048201526024810183905260440161084f565b5050565b610d7f610dc3565b15610d9d57604051633ee5aeb560e01b815260040160405180910390fd5b565b7f9b779b17422d0df92223018b32b4d1fa46e071723d6817e2486d003becc55f0090565b5f6002610dd1610c2f610d9f565b5414919050565b5f60208284031215610de8575f5ffd5b81356001600160e01b031981168114610dff575f5ffd5b9392505050565b80356001600160a01b0381168114610e1c575f5ffd5b919050565b5f5f60408385031215610e32575f5ffd5b610e3b83610e06565b9150602083013565ffffffffffff81168114610e55575f5ffd5b809150509250929050565b5f60208284031215610e70575f5ffd5b5035919050565b5f5f60408385031215610e88575f5ffd5b82359150610e9860208401610e06565b90509250929050565b5f60208284031215610eb1575f5ffd5b5051919050565b634e487b7160e01b5f52601160045260245ffd5b5f60018201610edd57610edd610eb8565b5060010190565b6001600160a01b0392909216825265ffffffffffff16602082015260400190565b808202811582820484141761045957610459610eb8565b5f82610f3657634e487b7160e01b5f52601260045260245ffd5b500490565b9182526001600160a01b0316602082015260400190565b8082018082111561045957610459610eb8565b8181038181111561045957610459610eb856fea2646970667358221220debf25f3d0114e16529ff81bec8434aee5246b359635e35f47bf8333af8b417564736f6c634300081c0033","linkReferences":{}},"methodIdentifiers":{"DEFAULT_ADMIN_ROLE()":"a217fddf","claimDividend(uint256)":"9abd3572","createDividendRound(address,uint48)":"18d0f4cb","getClaimableAmount(uint256,address)":"78c5195e","getRoleAdmin(bytes32)":"248a9ca3","getRound(uint256)":"8f1327c0","grantRole(bytes32,address)":"2f2ff15d","hasClaimed(uint256,address)":"873f6f9e","hasRole(bytes32,address)":"91d14854","nextRoundId()":"4002eda6","recoverUnclaimed(uint256,address)":"e8aa69bb","renounceRole(bytes32,address)":"36568abe","revokeRole(bytes32,address)":"d547741f","rounds(uint256)":"8c65c81f","supportsInterface(bytes4)":"01ffc9a7"},"id":77}